:100000000C94E5050C94EF050C94EF050C94EF05AA
:100010000C94EF050C94EF050C94EF050C94EF0590
:100020000C94EF050C94EF050C94EF050C94EF0580
:100030000C94EF050C94EF050C94EF050C94EF0570
:100040000C94EF050C94EF050C94EF050C94EF0560
:100050000C94EF050C94EF050C94EF050C94EF0550
:100060000C94EF050C94EF056E616E00696E6600EE
:1000700000407A10F35A00A0724E18090010A5D45F
:10008000E80000E87648170000E40B54020000CABC
:100090009A3B000000E1F505000080969800000002
:1000A00040420F000000A086010000001027000061
:1000B0000000E803000000006400000000000A00E7
:1000C000000000000100000000002C76D888DC67EA
:1000D0004F0823DFC1DFAE59E1B1B796E5E3E45342
:1000E000C63AE651997696E8E6C28426EB898C9B5F
:1000F00062ED407C6FFCEFBC9C9F40F2BAA56FA5FF
:10010000F490055A2AF75C936B6CF9676DC11BFC80
:10011000E0E40D47FEF520E6B500D0ED902E03009B
:10012000943577050080841E080000204E0A0000E8
:1001300000C80C333333330F986E12831141EF8DA7
:100140002114893BE65516CFFEE6DB18D1844B38E7
:100150001BF77C1D901DA4BBE424203284725E2218
:100160008100C9F124ECA1E53D270000000000005A
:10017000000000000000000000000010383870701F
:10018000E0C0C0800000000000000000000000008F
:1001900080C0E0E07070383800000000000000000F
:1001A000000000000000000000000000000000004F
:1001B000000000000000000000000000000000003F
:1001C000000000000000000000000000000000002F
:1001D000000000000000000000000000000000001F
:1001E000000000000000000000000000000000000F
:1001F00000000000000000000000000000000000FF
:100200000001030F3FFCF08080808080C0F8FC3F3D
:1002100007030100000000000000000000000000D3
:1002200000000000000000000000000000000000CE
:1002300000000000000000000000000000000000BE
:1002400000000000000000000000000000000000AE
:10025000000000000000000000000000000000009E
:10026000000000000000000000000000000000008E
:10027000000000000000000000000000000080F00E
:10028000F8FCFEFEFFFFFFFFFFFFFFFFFFFFFFFF8A
:10029000FEFEFCF8E000000000000000000000008E
:1002A0000000000000000000000000C0C0C0C0C08E
:1002B000C0C0C08000000000C0C0C0C0C0C0C0C07E
:1002C00000000000C0C0C0C0C0C0C0C0000000002E
:1002D000000000000000E0E000000000000000005E
:1002E000000000000000000000000000000000000E
:1002F000000000000080C0C0E0E0707038381F1FB0
:100300001F1F1F0F1F1FFFFFFFFFFFFFFFFF1F0F1D
:100310000F1F1F1F1F3838387070E0E0C08080004A
:100320000000000000000000000000FFFF3030303F
:100330003030FFCF87000000FFFF303030303020FA
:1003400000000000FFFF303030303020000000009F
:10035000000000000000FFFF180C0C0C0CF8F0006F
:10036000000000000000000000000000000000008D
:10037000E0F8FC1E0F070301000000000000000071
:1003800000000080C0F8FF1F070707073FFFF0C00D
:100390000000000000000000000000000103070F43
:1003A0001EFCF8C0000000000000001F1F181818F5
:1003B00018181F0F070000001F1F1818181818180A
:1003C000100000001F1F181818181818100000003F
:1003D0001C1C000000001F1F00000000001F1F0069
:1003E000000000000000000000000000000000000D
:1003F000030F1F3C387070E0E0E0E0E0E0F0F0F860
:10040000FCFCFEFFFBF9F8F8F8F8F8F8F8F8F9FF4B
:10041000FFFEFCF8F8F0F0E0E0E0E0E0E0707038BB
:100420001E0F070100000000000000000000000097
:1004300000000000000000000000000000000000BC
:1004400000000000000000000000000000000000AC
:10045000000000000000000000000000000000009C
:10046000000000000000000000000000000000008C
:1004700000000000000000000000000000030F1F4B
:100480007D73E3E3C383878787070787878383C3F6
:10049000E3E3793D1F0F03000000000000000000AF
:1004A000000000000000000000000000000000004C
:1004B000000000000000000000000000000000003C
:1004C000000000000000000000000000000000002C
:1004D000000000000000000000000000000000001C
:1004E000000000000000000000000000000000000C
:1004F00000000000000000000000000000000000FC
:1005000000000001010303031F3F1F070303010154
:1005100001000000000000000000000000000000DA
:1005200000000000000000000000000000000000CB
:1005300000000000000000000000000000000000BB
:1005400000000000000000000000000000000000AB
:10055000000000000000000000000000000000009B
:10056000000000000000000000000000000000008B
:10057000005F00000000000700070000147F147FE8
:100580001400242A7F2A12002313086462003649CB
:10059000552250000005030000001C22410000000D
:1005A00041221C000000082A1C2A080008083E08F6
:1005B0000800A0600000000008080808080060604B
:1005C000000000002010080402003E5149453E0092
:1005D00000427F400000625149494600224149499A
:1005E00036001814127F10002745454539003C4A53
:1005F000494930000171090503003649494936006F
:10060000064949291E0000363600000000AC6C0087
:100610000000081422410000141414141400412294
:1006200014080000020151090600324979413E00D8
:100630007E0909097E007F49494936003E41414112
:1006400022007F4141221C007F49494941007F0926
:10065000090901003E41415172007F0808087F00EE
:10066000417F410000002040413F01007F081422EB
:1006700041007F40404040007F020C027F007F0429
:1006800008107F003E4141413E007F0909090600F4
:100690003E4151215E007F091929460026494949FA
:1006A000320001017F0101003F4040403F001F2018
:1006B00040201F003F4038403F006314081463008F
:1006C0000304780403006151494543007F41410020
:1006D000000002040810200041417F0000000402D5
:1006E000010204008080808080000102040000007C
:1006F0002054545478007F484444380038444428F7
:100700000000384444487F00385454541800087E90
:100710000902000018A4A4A47C007F080404780047
:10072000007D0000000080847D0000007F102844D0
:100730000000417F400000007C04180478007C0821
:10074000047C0000384444380000FC2424180000D5
:10075000182424FC0000007C0804000048545424A1
:100760000000047F440000003C40407C00001C204E
:1007700040201C003C4030403C00442810284400ED
:100780001CA0A07C00004464544C44000836410086
:100790000000007F00000000413608000000020158
:1007A00001020100020505020000000000C0E0F0A7
:1007B000F0F0F0F0F0F0F0F0F0F0F0F0F0E0C00069
:1007C0000000000000FFFFFFFF010000000000002C
:1007D000000001FFFFFFFF000000000000FFFFFF1F
:1007E000FF80000000000000000080FFFFFFFF000E
:1007F000000000000003070F0F0F0F0F0F0F0F0F68
:100800000F0F0F0F0F070300000000000000000093
:100810000000000000000000E0F0F0E00000000038
:1008200000000000000000000000000000000000C8
:10083000FFFFFFFF000000000000000000000000BC
:100840000000000000000000FFFFFFFF00000000AC
:100850000000000000000000000000000000000098
:1008600003070703000000000000000000E0F0F0B4
:10087000F0F0F0F0F0F0F0F0F0F0F0F0F0E0000068
:10088000000000000081C1C0C0C0C0C0C0C0C0C066
:10089000C0E1FFFFFFFF00000000000000FFFFFFBE
:1008A000FF870303030303030303030383810000A0
:1008B0000000000000070F0F0F0F0F0F0F0F0F0F9B
:1008C0000F0F0F0F0F0700000000000000E0F0F016
:1008D000F0F0F0F0F0F0F0F0F0F0F0F0F0E0000008
:1008E000000000000081C1C0C0C0C0C0C0C0C0C006
:1008F000C0E1FFFFFF7F00000000000000818303D4
:1009000003030303030303030387FFFFFFFE00004A
:100910000000000000070F0F0F0F0F0F0F0F0F0F3A
:100920000F0F0F0F0F0700000000000000E0F0F0B5
:10093000F0300000000000000030F0F0F0E00000B7
:100940000000000000FFFFFFFFE0C0C0C0C0C0C04B
:10095000C0E0FFFFFFFF00000000000000010303F4
:1009600003030303030303030307FFFFFFFF000069
:100970000000000000000000000000000000000077
:10098000000C0F0F0F0700000000000000E0F0F067
:10099000F0F0F0F0F0F0F0F0F0F0F0F0F0E0000047
:1009A0000000000000FFFFFFFFE1C0C0C0C0C0C0EA
:1009B000C0C0C0C0C18100000000000000818303EE
:1009C00003030303030303030387FFFFFFFF000089
:1009D0000000000000070F0F0F0F0F0F0F0F0F0F7A
:1009E0000F0F0F0F0F0700000000000000E0F0F0F5
:1009F000F0F0F0F0F0F0F0F0F0F0F0F0F0E00000E7
:100A00000000000000FFFFFFFFE1C0C0C0C0C0C089
:100A1000C0C0C0C0C18100000000000000FFFFFF97
:100A2000FF870303030303030387FFFFFFFF0000A8
:100A30000000000000070F0F0F0F0F0F0F0F0F0F19
:100A40000F0F0F0F0F0700000000000000E0F0F094
:100A5000F0F0F0F0F0F0F0F0F0F0F0F0F0E0000086
:100A60000000000000010100000000000000000084
:100A70000001FFFFFFFF0000000000000000000079
:100A800000000000000000000000FFFFFFFF00006A
:100A90000000000000000000000000000000000056
:100AA000000C0F0F0F0700000000000000E0F0F046
:100AB000F0F0F0F0F0F0F0F0F0F0F0F0F0E0000026
:100AC00000000000007FFFFFFFE1C0C0C0C0C0C049
:100AD000C0E1FFFFFF3F00000000000000FEFFFF3D
:100AE000FF870303030303030387FFFFFFFE0000E9
:100AF0000000000000070F0F0F0F0F0F0F0F0F0F59
:100B00000F0F0F0F0F0700000000000000E0F0F0D3
:100B1000F0F0F0F0F0F0F0F0F0F0F0F0F0E00000C5
:100B20000000000000FFFFFFFFE1C0C0C0C0C0C068
:100B3000C0E1FFFFFFFF0000000000000001030311
:100B400003030303030303030307FFFFFFFF000087
:100B50000000000000000000000000000000000095
:100B6000000C0F0F0F070000000000000000000045
:100B70000000000000000000000000000000000075
:100B800000000000000000000000003C7E7E7E7E31
:100B90003C00000000000000000000000000000019
:100BA000000000F0F8F8F8F8F00000000000000085
:100BB0000000000000000000000000000101010131
:100BC0000000000000000000000011241FBECFEF55
:100BD000D8E0DEBFCDBF0E94D40B0C94970D0C94CF
:100BE000000081E08093B90086E28093B80084E041
:100BF0008093BC00089594EA9093BC009091BC004F
:100C000097FFFCCF9091B900987F983091F4809332
:100C1000BB0084E88093BC008091BC0087FFFCCFC0
:100C20008091B900887F883131F0803231F083E0E3
:100C3000089580E0089581E0089582E0089594EA9F
:100C40009093BC009091BC0097FFFCCF9091B900AD
:100C5000987F903191F48093BB0084E88093BC002E
:100C60008091BC0087FFFCCF8091B900887F8034E1
:100C700031F0803231F083E0089580E0089581E022
:100C8000089582E008958093BB0084E88093BC00BF
:100C90008091BC0087FFFCCF8091B900887F8832AB
:100CA00021F0803321F082E0089580E0089581E012
:100CB000089584EC8093BC008091BC0087FFFCCF3A
:100CC0008091BB00089584E88093BC008091BC00B3
:100CD00087FFFCCF8091BB00089584E98093BC001E
:100CE0000895CF93C82F8AE70E94FB0580E80E94F1
:100CF00043068C2F0E944306CF910C946D06CF9330
:100D0000C82F8AE70E94FB0580E40E9443068C2FCF
:100D10000E944306CF910C946D063B9A439A2FEFA5
:100D200081EE94E0215080409040E1F700C0000047
:100D30008EEA0E94710685ED0E94710680E80E948D
:100D4000710688EA0E9471068FE30E94710683EDA6
:100D50000E94710680E00E94710680E40E94710684
:100D60008DE80E94710684E10E94710681EA0E946A
:100D7000710688EC0E9471068AED0E94710682E17C
:100D80000E94710681E80E9471068FEC0E94710634
:100D900089ED0E94710681EF0E9471068BED0E9421
:100DA000710680E40E94710684EA0E94710686EA58
:100DB0000E9471068FEA0C9471068FEA0C947106FA
:100DC0008EEA0C9471060F931F93CF93DF93C82F75
:100DD0008AE70E94FB0580E40E944306C052DD0BB7
:100DE00026E02C9F80012D9F100D112406591A4FCB
:100DF000D0E0C0E0F801EC0FFD1F84910E94430693
:100E00002196C630D105B1F7DF91CF911F910F9197
:100E10000C946D06CF93C62F80550E9471068C2FBF
:100E2000880F8C0F880F8E700E94710626E0C29F7B
:100E3000C001112424E0959587952A95E1F78F70DC
:100E4000805FCF910C947106AF92BF92CF92DF92E8
:100E5000EF92FF920F931F93CF936C01C0E0F12CA0
:100E6000E12C60E08C2F0E940A0710E000E05601A0
:100E7000AE0CBF1CF501E00FF11F84910E947F06AC
:100E80000F5F1F4F00381105A9F780E8E80EF11C2D
:100E9000CF5FC83031F7CF911F910F91FF90EF9046
:100EA000DF90CF90BF90AF9008950F931F93CF9393
:100EB000C0E060E08C2F0E940A0700E810E080E0AC
:100EC0000E94E30601501109D1F7CF5FC83089F7BE
:100ED000CF911F910F9108950E94E0060E9455073F
:100EE0000C94DD06AF92BF92CF92DF92EF92FF9209
:100EF0000F931F93CF93DF93E82EEB01F42E642F13
:100F00008C2F0E940A078E2D0E2C000C990BC09777
:100F100040E6489F9001499F300D1124C901865534
:100F2000984F5C0110E000E0D12CC12C90E280E0F1
:100F3000E91621F0F501E00FF11F84910E94E3060C
:100F400087E1C816D104B9F421966F2D8C2F0E9429
:100F50000A07D12CC12C0F5F1F4F0036110531F746
:100F6000DF91CF911F910F91FF90EF90DF90CF9085
:100F7000BF90AF9008959FEFC91AD90AECCF0F9395
:100F80001F93CF93DF93C82F862F642F0E940A07E9
:100F90008AE70E94FB0580E40E944306C052DD0BF5
:100FA00026E02C9F80012D9F100D112406591A4F09
:100FB000D0E0C0E0F801EC0FFD1F84910E944306D1
:100FC0002196C630D105B1F7DF91CF911F910F91D6
:100FD0000C946D06CF93C62F80550E9471068C2FFE
:100FE0008F700E9471068C2F82958F70805FCF91D9
:100FF0000C947106DF92EF92FF920F931F93CF93A1
:10100000DF93EC0186E0D82E8991811108C0DF9131
:10101000CF911F910F91FF90EF90DF90089510E016
:1010200000E07E0181E0E81AF108F7018081082ED6
:10103000000C990B8097D89EF001D99EF00D1124D9
:10104000E00FF11FE659FA4F84910E94E3060F5F0B
:101050001F4F0630110549F7D7CFDF92EF92FF926D
:101060000F931F93CF93DF938C01862F642F0E94E1
:101070000A07E80186E0D82E8991811108C0DF9126
:10108000CF911F910F91FF90EF90DF90089510E0A6
:1010900000E07E0181E0E81AF108F7018081082E66
:1010A000000C990B8097D89EF001D99EF00D112469
:1010B000E00FF11FE659FA4F84910E94E3060F5F9B
:1010C0001F4F0630110549F7D7CF87EA0C947106F8
:1010D00086EA0C947106A3E1B0E0E1E7F8E00C9435
:1010E000E40B7C011B015A01DC0117961C921E9235
:1010F000169713968C9181FF4DC3FE0131964F01D7
:10110000D70113969C91F10193FD859193FF8191F5
:101110001F01882309F4F1C2853239F493FD8591CA
:1011200093FF81911F01853239F4B70190E00E944D
:10113000090D65015601E4CF10E0712C612CBFE16F
:10114000B61538F08B3211F190F4803209F1833208
:1011500029F167FC3CC020ED280F2A3050F566FECF
:1011600020C0EAE01E9F200D1124122F06C08D32F0
:1011700091F0803371F7689460F8F10193FD8591E7
:1011800093FF81911F018111DACF21C0689461F82A
:10119000689462F8F2CF689463F8EFCF689464F8CB
:1011A000ECCFFAE07F9E200D1124722E689465F832
:1011B000E4CF8E3229F466FCA0C2689466F8DDCFD5
:1011C0008C3619F4689467F8D8CF8836B1F29BEB67
:1011D000980F933008F06FC0689464F8805E66FEE4
:1011E00016E0262D2F73622E853609F06CC06894A8
:1011F00066F867FE72C0812F1C3308F08BE344242D
:101200004394480E27E0D5014D915D916D917D91FC
:101210006D014C875D876E877F87042DA4016C85E7
:101220007D858E859F850E941B0C5C01B981BC87E2
:10123000B0FF03C00DE2B3FF07C00BE261FC04C0C6
:10124000062D047062FC00E2EC85EC705E2E09F461
:1012500054C00111A2C2F3E0512CF715A0F483E0B1
:10126000572C581A63FC08C0B70180E290E00E9436
:10127000090D5A945110F8CF002329F0B701802F9F
:1012800090E00E94090DFC8508E610E0F3FD02C025
:101290000CE610E0262D2071622EF8018491811158
:1012A00023C0552009F446CFB70180E290E00E94A8
:1012B000090D5A94F6CF9BE9980F933008F02DC191
:1012C000E89464F88CCF863619F4689467F891CF67
:1012D000112309F48ECF11508CCF212F183010F02C
:1012E00027E017E0412C8FCF61108052B70190E0CA
:1012F0000E94090D0F5F1F4FD0CF67FE7AC04A0CC6
:10130000FC85F4FF04C08A81813309F44A941414E3
:101310000CF092C028E0241510F488E0482E85E0F7
:1013200090E067FE06C0C501B7FE02C080E090E015
:10133000019601110196112331F0212F30E02F5F2A
:101340003F4F820F931F7816190619F014F0572C8F
:10135000581A862D897011F4511073C0002329F09A
:10136000B701802F90E00E94090D63FC02C051106C
:101370006FC067FE88C03501B7FE02C0712C612CBA
:10138000C50186199709A401480F591F598B488B2D
:10139000B501641971097B8B6A8B012F10E01195DF
:1013A00001951109A614B7040CF459C0AA89BB8988
:1013B000A615B7050CF053C0E889F9898181F1E0E1
:1013C0006F1A7108601671060CF44BC0B70190E0FB
:1013D0000E94090D2FEF6216720629F4B7018EE202
:1013E00090E00E94090D888999890196998B888BD4
:1013F000D9CF66FC94CFE12FF0E0EA15FB053CF075
:101400003CEFA3163FEFB30614F0689467F83296EA
:10141000E80DF91D01C01150112319F0829180339C
:10142000D1F367FE7CCF44244394410E1A151B046C
:1014300031F02CF01A1973CF4424439470CF10E08C
:101440006ECFB70180E290E00E94090D5A9484CFDC
:10145000B70180E390E00E94090D5A9488CF80E3A1
:10146000AECFA614B70441F49A81963350F4953365
:1014700019F43C8534FF05C0B70190E00E94090DC6
:1014800010CF81E3F9CF8A81813319F04C854F7EEB
:101490004C87B70190E00E94090D112399F0B70124
:1014A0008EE290E00E94090D1E5F02E0802F0F5F28
:1014B000F401E80FF11D8081B70190E00E94090D51
:1014C0001013F4CF85E664FC85E490E0B7010E9438
:1014D000090DB7FC06C0A114B104C1F45C8554FF2A
:1014E00015C0B194A194B1088DE2B70190E00E94BB
:1014F000090D80E37AE0A716B10454F4B70190E037
:101500000E94090DB701C501C096B8CF8BE2EDCF9F
:101510008F5F6AE0A61AB108EDCF8336B9F0833742
:1015200009F43AC0833509F04DC0D501AD90BD90A6
:101530006D01612F70E066FC02C06FEF7FEFC501A7
:101540000E94F30C8C01689467F80CC0650182E07E
:10155000C80ED11CD5018C91898301E010E05401A3
:10156000E89467F863FC04C07016110609F018F5DA
:10157000572C0115110509F494CEF50167FC8591EE
:1015800067FE81915F01B70190E00E94090D511043
:101590005A9401501109EDCFF501A190B1906F015E
:1015A000612F70E066FC02C06FEF7FEFC5010E9403
:1015B000FE0C8C01D5CFB70180E290E00E94090DAE
:1015C0007A94D2CF843619F0893609F06FC067FE5D
:1015D00064C0F50161917191819191916F01B62D76
:1015E000BF766B2E97FF09C0909580957095619599
:1015F0007F4F8F4F9F4F689467F82AE030E0A40137
:101600000E94390DA82EA818BA2C062D66FE0AC015
:101610000E7FA11638F464FE04C062FC02C0062DE1
:101620000E7EB12E04FF8EC0FE01EA0DF11D8081F9
:10163000803309F080C0097E502F5870552E03FD6D
:1016400090C000FF8AC01A2DB71410F4170D1B1993
:1016500004FF8DC0B70180E390E00E94090D02FFF6
:1016600007C088E701FD88E590E0B7010E94090DF9
:10167000A11608F488C0AA940A2D10E00F5F1F4F2E
:10168000080D191DD8018E918D01B70190E00E94BF
:10169000090D08151905B1F704CED5016D917D919D
:1016A0006D01072E000C880B990B99CF062D8537FD
:1016B000E1F40F7E2AE030E007FF35C0D5014D91FF
:1016C0005D916D917D916D014C875D876E877F8700
:1016D000A4016C857D858E859F850E94390DA82E7D
:1016E000A818602EE89467F88FCF097F803791F0B3
:1016F00058F4883589F08F36A1F0F70186819781FB
:101700006396E2E10C94000C8837B9F704FD04609D
:1017100020E1D1CF0061FACF64FC066020E132E025
:10172000CBCF28E0C8CFF501819191916F01AC0139
:1017300070E060E0C9CF02FD02C0B3947DCFB394E6
:10174000B3947ACF802F867809F476CFF6CFB7019D
:1017500080E290E00E94090DB394B714C0F3512CBD
:1017600077CF572C5B18B71408F472CFF8CF802FBF
:10177000867809F47DCF8BE201FF80E207FD8DE2E0
:10178000B70190E073CFB70180E390E00E94090DAC
:1017900011506ECF8FEF9FEFB3CF24E0512C271560
:1017A00008F06CCD84E05CCD80E8809361001092FD
:1017B00061000E948D060E946C078AE691E00E94FB
:1017C00024070E946508FFCF2F923F924F925F92AD
:1017D0006F927F928F929F92AF92BF92CF92DF9241
:1017E000EF92FF920F931F93CF93DF93CDB7DEB7A6
:1017F000CA1BDB0B0FB6F894DEBF0FBECDBF09943A
:101800002A88398848885F846E847D848C849B8490
:10181000AA84B984C884DF80EE80FD800C811B819E
:10182000AA81B981CE0FD11D0FB6F894DEBF0FBECD
:10183000CDBFED010895283008F027E03327DA0105
:10184000990F311D87FD916000966105710539F48E
:1018500032602E5F3D9330E32A95E1F708959F3F74
:1018600030F080387105610509F03C5F3C5F3D93C5
:10187000913008F08068911DDF93CF931F930F93F1
:10188000FF92EF92192F987F9695E92F969596954E
:10189000E90FFF27E653FF4F99273327EE24FF2454
:1018A000A701E70105900894079428F4360FE71E76
:1018B000F81E491F511D660F771F881F991F069438
:1018C000A1F70590079428F4E70EF81E491F561F4C
:1018D000C11D770F881F991F661F0694A1F70590F9
:1018E000079428F4F80E491F561FC71FD11D880FF3
:1018F000991F661F771F0694A1F70590079420F49F
:10190000490F561FC71FD81F990F661F771F881FC3
:101910000694A9F784911095177041F0D695C79554
:1019200057954795F794E7941A95C1F7E0E7F0E0EB
:1019300068941590159135916591959105907FE288
:101940007395E118F10A430B560BC90BD009C0F788
:10195000E10CF11E431F561FC91FD01D7EF47033CA
:1019600011F48A95E6CFE894015030F0080F0AF49C
:101970000027021708F4202F2395022F7A3328F02E
:1019800079E37D932A95E9F710C07D932A9589F62E
:10199000069497956795379517951794E118F10A6E
:1019A000430B560BC90BD00998F023957E91739584
:1019B0007A3308F070E37C932013B8F77E9170615E
:1019C0007D9330F0839571E37D9370E32A95E1F781
:1019D0001124EF90FF900F911F91CF91DF919927E4
:1019E00087FD90950895FC010590615070400110AD
:1019F000D8F7809590958E0F9F1F0895FC01615038
:101A0000704001900110D8F7809590958E0F9F1F20
:101A100008950F931F93CF93DF93182F092FEB0196
:101A20008B8181FD09C01FEF0FEF812F902FDF9178
:101A3000CF911F910F91089582FF14C02E813F8195
:101A40008C819D81281739073CF4E881F981CF0109
:101A500001969983888310838E819F8101969F834D
:101A60008E83E3CFE885F985812F0995892BA1F332
:101A7000DACFFA01AA27283051F1203181F1E89418
:101A80006F936E7F6E5F7F4F8F4F9F4FAF4FB1E071
:101A90003ED0B4E03CD0670F781F891F9A1FA11D6C
:101AA000680F791F8A1F911DA11D6A0F711D811D6D
:101AB000911DA11D20D009F468943F912AE0269F32
:101AC00011243019305D3193DEF6CF010895462F91
:101AD0004770405D4193B3E00FD0C9F7F6CF462F72
:101AE0004F70405D4A3318F0495D31FD40524193DB
:101AF00002D0A9F7EACFB4E0A69597958795779598
:101B00006795BA95C9F700976105710508959B011E
:101B1000AC010A2E06945795479537952795BA95A7
:101B2000C9F7620F731F841F951FA01D0895F894B5
:021B3000FFCFE5
:00000001FF
