:100000000C94CC090C94E9090C94E9090C94E909C5
:100010000C94E9090C94E9090C94E9090C94E90998
:100020000C94E9090C94E9090C94E9090C94E90988
:100030000C94E9090C94E9090C94E9090C94E90978
:100040000C94E9090C94E9090C94E9090C94E90968
:100050000C94E9090C94E9090C94E9090C94E90958
:100060000C94E9090C94E9096E616E00696E6600F2
:1000700000407A10F35A00A0724E18090010A5D45F
:10008000E80000E87648170000E40B54020000CABC
:100090009A3B000000E1F505000080969800000002
:1000A00040420F000000A086010000001027000061
:1000B0000000E803000000006400000000000A00E7
:1000C000000000000100000000002C76D888DC67EA
:1000D0004F0823DFC1DFAE59E1B1B796E5E3E45342
:1000E000C63AE651997696E8E6C28426EB898C9B5F
:1000F00062ED407C6FFCEFBC9C9F40F2BAA56FA5FF
:10010000F490055A2AF75C936B6CF9676DC11BFC80
:10011000E0E40D47FEF520E6B500D0ED902E03009B
:10012000943577050080841E080000204E0A0000E8
:1001300000C80C333333330F986E12831141EF8DA7
:100140002114893BE65516CFFEE6DB18D1844B38E7
:100150001BF77C1D901DA4BBE424203284725E2218
:100160008100C9F124ECA1E53D270000000000005A
:10017000000000000000000000000010383870701F
:10018000E0C0C0800000000000000000000000008F
:1001900080C0E0E07070383800000000000000000F
:1001A000000000000000000000000000000000004F
:1001B000000000000000000000000000000000003F
:1001C000000000000000000000000000000000002F
:1001D000000000000000000000000000000000001F
:1001E000000000000000000000000000000000000F
:1001F00000000000000000000000000000000000FF
:100200000001030F3FFCF08080808080C0F8FC3F3D
:1002100007030100000000000000000000000000D3
:1002200000000000000000000000000000000000CE
:1002300000000000000000000000000000000000BE
:1002400000000000000000000000000000000000AE
:10025000000000000000000000000000000000009E
:10026000000000000000000000000000000000008E
:10027000000000000000000000000000000080F00E
:10028000F8FCFEFEFFFFFFFFFFFFFFFFFFFFFFFF8A
:10029000FEFEFCF8E000000000000000000000008E
:1002A0000000000000000000000000C0C0C0C0C08E
:1002B000C0C0C08000000000C0C0C0C0C0C0C0C07E
:1002C00000000000C0C0C0C0C0C0C0C0000000002E
:1002D000000000000000E0E000000000000000005E
:1002E000000000000000000000000000000000000E
:1002F000000000000080C0C0E0E0707038381F1FB0
:100300001F1F1F0F1F1FFFFFFFFFFFFFFFFF1F0F1D
:100310000F1F1F1F1F3838387070E0E0C08080004A
:100320000000000000000000000000FFFF3030303F
:100330003030FFCF87000000FFFF303030303020FA
:1003400000000000FFFF303030303020000000009F
:10035000000000000000FFFF180C0C0C0CF8F0006F
:10036000000000000000000000000000000000008D
:10037000E0F8FC1E0F070301000000000000000071
:1003800000000080C0F8FF1F070707073FFFF0C00D
:100390000000000000000000000000000103070F43
:1003A0001EFCF8C0000000000000001F1F181818F5
:1003B00018181F0F070000001F1F1818181818180A
:1003C000100000001F1F181818181818100000003F
:1003D0001C1C000000001F1F00000000001F1F0069
:1003E000000000000000000000000000000000000D
:1003F000030F1F3C387070E0E0E0E0E0E0F0F0F860
:10040000FCFCFEFFFBF9F8F8F8F8F8F8F8F8F9FF4B
:10041000FFFEFCF8F8F0F0E0E0E0E0E0E0707038BB
:100420001E0F070100000000000000000000000097
:1004300000000000000000000000000000000000BC
:1004400000000000000000000000000000000000AC
:10045000000000000000000000000000000000009C
:10046000000000000000000000000000000000008C
:1004700000000000000000000000000000030F1F4B
:100480007D73E3E3C383878787070787878383C3F6
:10049000E3E3793D1F0F03000000000000000000AF
:1004A000000000000000000000000000000000004C
:1004B000000000000000000000000000000000003C
:1004C000000000000000000000000000000000002C
:1004D000000000000000000000000000000000001C
:1004E000000000000000000000000000000000000C
:1004F00000000000000000000000000000000000FC
:1005000000000001010303031F3F1F070303010154
:1005100001000000000000000000000000000000DA
:1005200000000000000000000000000000000000CB
:1005300000000000000000000000000000000000BB
:1005400000000000000000000000000000000000AB
:10055000000000000000000000000000000000009B
:1005600000000000000000000000003E1C08000029
:10057000081C3E00081838180820303830200000C9
:100580000000000E150E000E1B0E000E1C0E000CBF
:100590001E0C00161F1600141F140000000000009F
:1005A0000000000000000000000000181A06000A09
:1005B0001D0A000000000004130E000E1B0E001F99
:1005C0000E0400040E1F000A1F0A00170017000087
:1005D0003C0200100F0000101010002A3F2A0002F9
:1005E0001F0200081F0804040E04040E0404000C7B
:1005F0000808000E040E000C0E0C00060E0600008B
:1006000000000000170000030003001F0A1F001471
:100610003F0A00090412001A151E00030100000E13
:10062000110000110E0000150E1500040E0400301C
:100630001000000404040000100000180403001E51
:10064000110F00121F10001915120011150A0006D3
:10065000041F00171509000E150800011D07000AE8
:10066000150A0002150E00001400003014000004EA
:100670000A110014141400110A0400011502001FCD
:100680001117001E051E001F150A000E1111001F74
:10069000110E001F1511001F0501000E111D001F76
:1006A000041F00111F110008100F001F041B001F62
:1006B0001010001F061F001F021F000E110E001F4A
:1006C0000502000E191E001F051A0016150D000167
:1006D0001F01001F101F000F100F001F0C1F001B19
:1006E000041B00031C0300191513001F1100000355
:1006F000041800111F000002010220202020000128
:1007000003000018141C001F14080008141400082B
:10071000141F000C1C1400041E05002C243C001F98
:10072000041800001D0000203D00001F08140000F8
:100730001F00001C0C1C001C041800081408003CBE
:1007400014080008143C001C040000101C040004E1
:100750001E14001C101C000C100C001C181C001493
:100760000814002C100C00041C1000041F110000C1
:100770001F0000111F0402010201000C0A0C002ED0
:100780001909000D101D000C1E15001A151E001968
:10079000141D0019161C0018151C002E3A0A000E14
:1007A0001D16000D1C15000D1E1400011C01000279
:1007B000190200011A00001D0A1D001C0B1C001C60
:1007C0001E1500181C0C001E1F15000A150A000932
:1007D000140900091608001A111A001D121C002D18
:1007E000100D000D120D001D101D000E1B0A00142F
:1007F0001E15000B1E0B001E061800101F0500180A
:10080000161D00001A01001C161D00181219001DEB
:10081000051D001D091D00161517001215120008F0
:100820001510000E020202020E00000B141A000B3B
:100830000C1A00001D00040A040A0A040A04001528
:10084000002A2A152A153F2A3F1500003F000404FC
:100850003F000A0A3F00043F003F043C043C0A0AF0
:100860003E000A3B003F003F003F0A3A023E0A0BAF
:10087000080F040704070A0A0F0004043C000000E4
:1008800007040404070404043C0400003F040404B7
:10089000040404043F0400003F0A003F003F000F2F
:1008A000080B003E023A0A0B080B0A3A023A003FD4
:1008B000003B0A0A0A0A0A3B003B0A0A0B0A040721
:1008C00004070A0A3A0A043C043C00070407000033
:1008D0000F0A00003E0A003C043C043F003F0A0AA5
:1008E0003B0A0404070000003C043F3F3F3F383808
:1008F00038383F3F000000003F3F07070707001C54
:100900001C14003E150A001F0103001F011F001BDD
:1009100015110008140C003C101C00041C020015EA
:100920001B15000E150E001C021C000A1509001CE8
:10093000141C000E1B0E000E1515001E011E0015C6
:1009400015150012171200151512001215150000CA
:100950003C0200100F0000041504140A140A0002DF
:10096000050200040E040000040000081F01000737
:100970000107000D0B00000C0C000000000000003F
:10098000000000003E5B4F5B3E003E6B4F6B3E0045
:100990001C3E7C3E1C00183C7E3C18001C577D57BA
:1009A0001C001C5E7F5E1C0000183C180000FFE766
:1009B000C3E7FF00001824180000FFE7DBE7FF0093
:1009C00030483A060E00262979292600407F050581
:1009D0000700407F05253F005A3CE73C5A007F3E18
:1009E0001C1C0800081C1C3E7F0014227F221400DF
:1009F0005F5F005F5F0006097F017F0000668995E9
:100A00006A0060606060600094A2FFA29400080425
:100A10007E04080010207E20100008082A1C080010
:100A2000081C2A0808001E10101010000C1E0C1EB6
:100A30000C0030383E383000060E3E0E0600000036
:100A40000000000000005F00000000070007000039
:100A5000147F147F1400242A7F2A120023130864B1
:100A60006200364956205000000807030000001CB1
:100A7000224100000041221C00002A1C7F1C2A0089
:100A800008083E08080000807030000008080808C8
:100A900008000000606000002010080402003E51C1
:100AA00049453E0000427F400000724949494600E6
:100AB0002141494D33001814127F10002745454548
:100AC00039003C4A494931004121110907003649A2
:100AD00049493600464949291E000000140000001B
:100AE00000403400000000081422410014141414C3
:100AF00014000041221408000201590906003E4179
:100B00005D594E007C1211127C007F494949360024
:100B10003E41414122007F4141413E007F494949D8
:100B200041007F09090901003E41415173007F08DE
:100B300008087F0000417F4100002040413F010044
:100B40007F08142241007F40404040007F021C0289
:100B50007F007F0408107F003E4141413E007F0935
:100B6000090906003E4151215E007F09192946000E
:100B700026494949320003017F0103003F404040BC
:100B80003F001F2040201F003F4038403F006314BB
:100B9000081463000304780403006159494D4300BD
:100BA000007F414141000204081020000041414102
:100BB0007F00040201020400404040404000000366
:100BC000070800002054547840007F28444438002F
:100BD000384444442800384444287F00385454544E
:100BE000180000087E09020018A4A49C78007F0861
:100BF0000404780000447D4000002040403D000097
:100C00007F102844000000417F4000007C047804ED
:100C100078007C0804047800384444443800FC1808
:100C20002424180018242418FC007C08040408005C
:100C300048545454240004043F4424003C404020C1
:100C40007C001C2040201C003C4030403C004428DC
:100C5000102844004C9090907C004464544C440014
:100C6000000836410000000077000000004136080F
:100C700000000201020402003C2623263C001EA1C3
:100C8000A16112003A4040207A003854545559006E
:100C9000215555794100215454784100215554780B
:100CA00040002054557940000C1E527212003955F4
:100CB0005555590039545454590039555454580015
:100CC0000000457C41000002457D42000001457C5A
:100CD0004000F0292429F000F0282528F0007C5459
:100CE000554500002054547C54007C0A097F49007B
:100CF000324949493200324848483200324A48486D
:100D000030003A4141217A003A4240207800009D6B
:100D1000A0A07D003944444439003D4040403D009E
:100D20003C24FF242400487E494366002B2FFC2FDF
:100D30002B00FF0929F62000C0887E0903002054FB
:100D4000547941000000447D41003048484A320057
:100D5000384040227A00007A0A0A72007D0D19316B
:100D60007D002629292F28002629292926003048F8
:100D70004D40200038080808080008080808380016
:100D80002F10C8ACBA002F102834FA0000007B00E6
:100D9000000008142A14220022142A140800AA00B1
:100DA0005500AA00AA55AA55AA00000000FF00009D
:100DB000101010FF0000141414FF00001010FF00AA
:100DC000FF001010F010F000141414FC00001414B4
:100DD000F700FF000000FF00FF001414F404FC0003
:100DE000141417101F0010101F101F001414141FCC
:100DF0000000101010F000000000001F1000101084
:100E0000101F1000101010F01000000000FF100064
:100E1000101010101000101010FF1000000000FF44
:100E200014000000FF00FF0000001F10170000006A
:100E3000FC04F4001414171017001414F404F40044
:100E40000000FF00F7001414141414001414F70029
:100E5000F70014141417140010101F101F0014149E
:100E600014F414001010F010F00000001F101F0008
:100E70000000001F1400000000FC14000000F0102F
:100E8000F0001010FF10FF00141414FF14001010D5
:100E9000101F0000000000F01000FFFFFFFFFF0028
:100EA000F0F0F0F0F000FFFFFF000000000000FF96
:100EB000FF000F0F0F0F0F003844443844007C2A06
:100EC0002A3E14007E0202060600027E027E020016
:100ED0006355494163003844443C0400407E201E71
:100EE000200006027E02020099A5E7A599001C2AAF
:100EF000492A1C004C7201724C00304A4D4D3000A2
:100F0000304878483000BC625A463D003E49494965
:100F100000007E0101017E002A2A2A2A2A00444478
:100F20005F44440040514A44400040444A5140001C
:100F30000000FF010300E080FF00000008086B6B69
:100F40000800361236243600060F090F060000008E
:100F5000181800000000101000003040FF010100D0
:100F6000001F01011E0000191D171200003C3C3C2F
:100F70003C00000000000000000000C0E0F0F0F0C5
:100F8000F0F0F0F0F0F0F0F0F0F0F0E0C000000071
:100F9000000000FFFFFFFF01000000000000000054
:100FA00001FFFFFFFF000000000000FFFFFFFF80C8
:100FB000000000000000000080FFFFFFFF000000B5
:100FC00000000003070F0F0F0F0F0F0F0F0F0F0F72
:100FD0000F0F0F07030000000000000000000000DA
:100FE000000000000000E0F0F0E000000000000061
:100FF0000000000000000000000000000000FFFFF3
:10100000FFFF0000000000000000000000000000E2
:10101000000000000000FFFFFFFF000000000000D4
:1010200000000000000000000000000000000307B6
:101030000703000000000000000000E0F0F0F0F006
:10104000F0F0F0F0F0F0F0F0F0F0F0E00000000070
:1010500000000081C1C0C0C0C0C0C0C0C0C0C0E1ED
:10106000FFFFFFFF00000000000000FFFFFFFF8701
:10107000030303030303030303038381000000004E
:10108000000000070F0F0F0F0F0F0F0F0F0F0F0FA5
:101090000F0F0F0700000000000000E0F0F0F0F07C
:1010A000F0F0F0F0F0F0F0F0F0F0F0E00000000010
:1010B00000000081C1C0C0C0C0C0C0C0C0C0C0E18D
:1010C000FFFFFF7F00000000000000818303030397
:1010D0000303030303030387FFFFFFFE0000000079
:1010E000000000070F0F0F0F0F0F0F0F0F0F0F0F45
:1010F0000F0F0F0700000000000000E0F0F0F030DC
:101100000000000000000030F0F0F0E000000000FF
:10111000000000FFFFFFFFE0C0C0C0C0C0C0C0E0D3
:10112000FFFFFFFF000000000000000103030303B6
:101130000303030303030307FFFFFFFF0000000097
:101140000000000000000000000000000000000C93
:101150000F0F0F0700000000000000E0F0F0F0F0BB
:10116000F0F0F0F0F0F0F0F0F0F0F0E0000000004F
:10117000000000FFFFFFFFE1C0C0C0C0C0C0C0C092
:10118000C0C0C18100000000000000818303030390
:101190000303030303030387FFFFFFFF00000000B7
:1011A000000000070F0F0F0F0F0F0F0F0F0F0F0F84
:1011B0000F0F0F0700000000000000E0F0F0F0F05B
:1011C000F0F0F0F0F0F0F0F0F0F0F0E000000000EF
:1011D000000000FFFFFFFFE1C0C0C0C0C0C0C0C032
:1011E000C0C0C18100000000000000FFFFFFFF87BA
:1011F0000303030303030387FFFFFFFF0000000057
:10120000000000070F0F0F0F0F0F0F0F0F0F0F0F23
:101210000F0F0F0700000000000000E0F0F0F0F0FA
:10122000F0F0F0F0F0F0F0F0F0F0F0E0000000008E
:1012300000000001010000000000000000000001AB
:10124000FFFFFFFF000000000000000000000000A2
:101250000000000000000000FFFFFFFF0000000092
:101260000000000000000000000000000000000C72
:101270000F0F0F0700000000000000E0F0F0F0F09A
:10128000F0F0F0F0F0F0F0F0F0F0F0E0000000002E
:101290000000007FFFFFFFE1C0C0C0C0C0C0C0E1D0
:1012A000FFFFFF3F00000000000000FEFFFFFF8780
:1012B0000303030303030387FFFFFFFE0000000097
:1012C000000000070F0F0F0F0F0F0F0F0F0F0F0F63
:1012D0000F0F0F0700000000000000E0F0F0F0F03A
:1012E000F0F0F0F0F0F0F0F0F0F0F0E000000000CE
:1012F000000000FFFFFFFFE1C0C0C0C0C0C0C0E1F0
:10130000FFFFFFFF000000000000000103030303D4
:101310000303030303030307FFFFFFFF00000000B5
:101320000000000000000000000000000000000CB1
:101330000F0F0F0700000000000000000000000079
:10134000000000000000000000000000000000009D
:101350000000000000000000003C7E7E7E7E3C001D
:10136000000000000000000000000000000000007D
:1013700000F0F8F8F8F8F0000000000000000000AD
:101380000000000000000000000001010101000059
:10139000000000000000000011241FBECFEFD8E0C5
:1013A000DEBFCDBF11E0A0E0B1E0E0E7F3E302C0B3
:1013B00005900D92A232B107D9F725E0A2E2B1E083
:1013C00001C01D92A133B207E1F70E946C150C9485
:1013D000B6190C940000EAE7F0E08081876880830A
:1013E000ECE7F0E080818083089590917C00907F0D
:1013F0008F70982B90937C0080917A00806480930A
:101400007A0080917A0084FFFCCF809178009091DF
:101410007900089581E08093B90086E28093B80056
:1014200084E08093BC00089594EA9093BC0090916E
:10143000BC0097FFFCCF9091B900987F983091F451
:101440008093BB0084E88093BC008091BC0087FF40
:10145000FCCF8091B900887F883131F0803231F043
:1014600083E0089580E0089581E0089582E0089582
:1014700094EA9093BC009091BC0097FFFCCF9091B0
:10148000B900987F903191F48093BB0084E88093F9
:10149000BC008091BC0087FFFCCF8091B900887FA1
:1014A000803431F0803231F083E0089580E0089597
:1014B00081E0089582E008958093BB0084E88093E2
:1014C000BC008091BC0087FFFCCF8091B900887F71
:1014D000883221F0803321F082E0089580E0089581
:1014E00081E0089584EC8093BC008091BC0087FF6C
:1014F000FCCF8091BB00089584E88093BC0080916C
:10150000BC0087FFFCCF8091BB00089584E98093E5
:10151000BC000895EF92FF921F93CF93DF93C82FE3
:10152000CB01892BA9F16130710509F05CC08AE714
:101530000E94140A80E40E945C0A84E0C89FE001D3
:101540001124C258DA4FF12CE12CFE01EE0DFF1DE3
:101550001491812F0E945C0A20912F01309130015B
:10156000F901EF5CFE4F10832F5F3F4F3093300146
:1015700020932F018FEFE81AF80A84E0E816F104AF
:1015800021F7DF91CF911F91FF90EF900C94860A85
:101590008AE70E94140A80E40E945C0A84E0C89FE3
:1015A000E0011124C258DA4FF12CE12CFE01EE0DBE
:1015B000FF1D14911095812F0E945C0A80912F01CC
:1015C00090913001FC01EF5CFE4F108301969093E7
:1015D000300180932F018FEFE81AF80A84E0E816B3
:1015E000F10421F7CECFDF91CF911F91FF90EF90C3
:1015F0000895CF93C82F8AE70E94140A80E80E94BA
:101600005C0A8C2F0E945C0ACF910C94860ACF93BF
:10161000C82F8AE70E94140A80E40E945C0A8C2F7B
:101620000E945C0A0E94860A20912F0130913001AD
:10163000F901EF5CFE4FC0832F5F3F4F30933001C5
:1016400020932F01CF910895CF93DF93C82FD62FEA
:1016500080EB8C0F0E94F90A8D2F880F8D0F880F59
:101660008E700E94F90A26E0D29FC001112424E066
:10167000959587952A95E1F78F70805F0E94F90A0A
:1016800020E8C29FC00111248D0F911D909330015D
:1016900080932F01DF91CF910895CF93DF93C82FCF
:1016A000D62F80EB8C0F0E94F90A8D2F8F700E942D
:1016B000F90A8D2F82958F70805F0E94F90A20E8C9
:1016C000C29FC00111248D0F911D90933001809312
:1016D0002F01DF91CF910895EF92FF921F93CF9347
:1016E000DF93C82FCB01892BA9F16130710509F077
:1016F0005CC08AE70E94140A80E40E945C0A86E0CB
:10170000C89FE0011124C258D64FF12CE12CFE01F4
:10171000EE0DFF1D1491812F0E945C0A20912F0174
:1017200030913001F901EF5CFE4F10832F5F3F4F86
:101730003093300120932F018FEFE81AF80A86E0EA
:10174000E816F10421F7DF91CF911F91FF90EF9000
:101750000C94860A8AE70E94140A80E40E945C0ABC
:1017600086E0C89FE0011124C258D64FF12CE12C2D
:10177000FE01EE0DFF1D14911095812F0E945C0A51
:1017800080912F0190913001FC01EF5CFE4F10839E
:1017900001969093300180932F018FEFE81AF80A99
:1017A00086E0E816F10421F7CECFDF91CF911F91AB
:1017B000FF90EF9008951F93CF93DF93C82F862F4C
:1017C000642F122FD32F0E944D0B612F7D2F8C2F52
:1017D000DF91CF911F910C946C0B0F931F93CF93BC
:1017E000DF93162F072FEC018991811105C0DF913E
:1017F000CF911F910F910895612F702F0E946C0B54
:10180000F3CFEF92FF920F931F93CF93DF937C015F
:10181000862F642F122F032F0E944D0BE701899111
:10182000811107C0DF91CF911F910F91FF90EF9031
:101830000895612F702F0E946C0BF1CF1F93CF93EF
:10184000DF93C82F862F642F122FD32F0E944D0BAA
:10185000612F7D2F8C2FDF91CF911F910C948A0ADD
:10186000EF92FF920F931F93CF93DF937C01862F0C
:10187000642F122F032F0E944D0BE70189918111D4
:1018800007C0DF91CF911F910F91FF90EF900895C6
:10189000612F702F0E948A0AF1CF8F929F92AF9290
:1018A000BF92CF92DF92EF92FF920F931F93CF934D
:1018B000DF93D82EEB01C42EB22EA32E642F8C2FD3
:1018C0000E944D0B8D2D0D2C000C990BC09740E6FE
:1018D000489F9001499F300D1124C9018858904FAD
:1018E0004C0110E000E0F12CE12C90E26B2D7A2D00
:1018F00080E0D91621F0F401E00FF11F84910E94DD
:101900006C0B87E1E816F104C9F421966C2D8C2F3D
:101910000E944D0BF12CE12C0F5F1F4F003611057B
:1019200021F7DF91CF911F910F91FF90EF90DF9002
:10193000CF90BF90AF909F908F9008959FEFE91A3E
:10194000F90AEACFAF92BF92CF92DF92EF92FF9265
:101950000F931F93CF938C01CB01892B61F16130E1
:101960007105F9F4C0E0D12CC12C60E08C2F0E94ED
:10197000240BF12CE12C5801AC0CBD1CF501EE0D33
:10198000FF1D84910E94070B8FEFE81AF80A80E888
:10199000E816F10499F780E8C80ED11CCF5FC83073
:1019A00021F7CF911F910F91FF90EF90DF90CF9093
:1019B000BF90AF900895C0E0D12CC12C60E08C2F77
:1019C0000E94240BF12CE12C5801AC0CBD1CF5013C
:1019D000EE0DFF1D849180950E94070B8FEFE81A92
:1019E000F80A80E8E816F10491F780E8C80ED11CE7
:1019F000CF5FC83019F7D5CF8FEA0C94F90A8EEA79
:101A00000C94F90A0F931F93CF93C0E060E08C2FE2
:101A10000E94240B00E810E080E00E94070B0150B8
:101A20001109D1F7CF5FC83089F7109230011092B9
:101A30002F01CF911F910F9108950E94FF0C0E94DA
:101A4000020D0C94FC0C3B9A439A2FEF81EE94E02C
:101A5000215080409040E1F700C000008EEA0E94D3
:101A6000F90A85ED0E94F90A80E80E94F90A88EADD
:101A70000E94F90A8FE30E94F90A83ED0E94F90A95
:101A800080E00E94F90A80E40E94F90A8DE80E9431
:101A9000F90A84E10E94F90A81EA0E94F90A88ECB5
:101AA0000E94F90A8AED0E94F90A82E10E94F90A6D
:101AB00081E80E94F90A8FEC0E94F90A89ED0E94E0
:101AC000F90A81EF0E94F90A8BED0E94F90A80E47D
:101AD0000E94F90A84EA0E94F90A86EA0E94F90A39
:101AE0008FEA0E94F90A0C941D0DCF93DF939C019D
:101AF000FB01EA01AC0193E0559547959A95E1F712
:101B00005695542F4427579547954E0F5F1F4230E7
:101B100084E05807A8F54F5C5E4FDA014C9120979E
:101B2000B1F0C130D10509F1C0E037FF02C0295F33
:101B30003F4F83E0359527958A95E1F76E2F822FE9
:101B40000E944D0B8C2FDF91CF910C94070BC90194
:101B500068E070E00E94A516C1E0D0E001C0CC0FA3
:101B60008A95EAF7C095C423E0CFC90168E070E028
:101B70000E94A51601C0CC0F8A95EAF7C42BD5CFD9
:101B8000DF91CF9108954F925F926F927F928F92E3
:101B90009F92AF92BF92CF92DF92EF92FF920F93FC
:101BA0001F93CF93DF936C01EB015A017901480138
:101BB0008901061B170BCA018C199D099801282B56
:101BC000392B232BA9F4A401BE01C601DF91CF91CB
:101BD0001F910F91FF90EF90DF90CF90BF90AF904B
:101BE0009F908F907F906F905F904F900C94750DA9
:101BF00031E00115110509F030E021E01816190651
:101C00000CF020E0332311F0211143C0592F551F50
:101C10005527551F332311F0511157C031E01016CD
:101C200011060CF030E061E0009709F060E033232A
:101C300011F0611154C0412F441F4427441F6623F3
:101C400011F0411158C0222309F49AC0332309F43A
:101C500097C0801791070CF063C02C01440C551CF1
:101C60003201601A710A9C01201B310B8901000F9F
:101C7000111FEC16FD060CF042C0A401B701C5010E
:101C8000A5CFA401BE01C6010E94750D2FEFC21A97
:101C9000D20AAC14BD04ACF7DF91CF911F910F9124
:101CA000FF90EF90DF90CF90BF90AF909F908F907C
:101CB0007F906F905F904F900895A401BE01C50181
:101CC0000E94750D3FEFA31AB30ACA14DB04ACF7E8
:101CD000E3CFA401BE01C6010E94750D2196EC164A
:101CE000FD06BCF7D9CFA401B701C6010E94750D4E
:101CF0008FEFE81AF80ACE15DF05ACF7CDCFA401B7
:101D0000BE01C6010E94750D77FE04C0640C751CEF
:101D10002196AFCF600E711E3FEFC31AD30AF8CFE2
:101D20000817190771F4EC16FD060CF4B5CFA401E1
:101D3000BE01C6010E94750D8FEFC81AD80A219600
:101D4000F2CF2801440C551C3201681A790A081B8D
:101D5000190B000F111FAC14BD040CF48ECFA4019D
:101D6000BE01C6010E94750D77FE06C0640C751C8D
:101D70002FEFC21AD20AEFCF600E711E2196F8CF54
:101D8000552309F459C0332309F456C096012A1982
:101D90003B092017310704F52C01440C551C320176
:101DA000600E711E080F191F000F111FCE15DF05E1
:101DB0000CF063CFA401BE01C6010E94750D16147C
:101DC000170424F4640C751C2196F0CF600E711E6C
:101DD00031E0C31AD108F8CF2017310771F4EC169F
:101DE000FD060CF459CFA401BE01C6010E94750D79
:101DF00081E0C81AD1082196F2CF2801440C551C65
:101E00003201680E791E080F191F000F111FAC1444
:101E1000BD040CF032CFA401BE01C6010E94750DB5
:101E200077FE06C0640C751C21E0C21AD108EFCF02
:101E3000600E711E2196F8CF222309F462C044235C
:101E400009F45FC08E010E191F0996012A193B097A
:101E50008017910714F52901440C551C3201600EBE
:101E6000711E020F131F000F111FEC16FD060CF060
:101E7000AACEA401B701C5010E94750D161417045E
:101E800034F4640C751C8FEFE81AF80AEECF600E7C
:101E9000711E31E0A31AB108F6CF8017910781F4C3
:101EA000CE15DF050CF4F8CEA401B701C5010E94E0
:101EB000750D21E0A21AB1083FEFE31AF30AF0CF43
:101EC0002801440C551C3201620E731E020F131FB1
:101ED000000F111FCA14DB040CF075CEA401B7016A
:101EE000C5010E94750D77FE06C0640C751C21E0CB
:101EF000A21AB108EFCF600E711E8FEFE81AF80A30
:101F0000F6CF552309F4C8CE442309F4C5CECE013B
:101F10008E199F0986010A191B09081719070CF564
:101F20002801440C551C3201681A790A081B190B48
:101F3000000F111FCE15DF050CF445CEA401B7012B
:101F4000C5010E94750D77FE06C0640C751C8FEFED
:101F5000E81AF80AEFCF600E711E3FEFA31AB30A1A
:101F6000F6CF8017910781F4CE15DF050CF494CEDF
:101F7000A401B701C5010E94750D2FEFA21AB20A84
:101F80003FEFE31AF30AF0CF2C01440C551C320149
:101F9000601A710A9C01201B310B8901000F111F6F
:101FA000CA14DB040CF40FCEA401B701C5010E94D2
:101FB000750D77FE06C0640C751C8FEFA81AB80A61
:101FC000EFCF600E711E3FEFE31AF30AF6CF4F9288
:101FD0005F926F927F928F929F92AF92BF92CF92B9
:101FE000DF92EF92FF920F931F93CF93DF93EC0159
:101FF0007B016A0129014A01860E971E3901680E8C
:10200000791EA801B401C3010E94750D5E01A418D8
:10201000B508A801B401C5010E94750D47018C18CF
:102020009D08A801B401C3010E94750DA801B40167
:10203000C5010E94750D4701840C951C5601AC0E1C
:10204000BD1EA801B401C5010E94750DCC19DD09A2
:10205000A801B401CE010E94750DE418F508A8018D
:10206000B701C5010E94750DA801B701CE01DF912E
:10207000CF911F910F91FF90EF90DF90CF90BF9085
:10208000AF909F908F907F906F905F904F900C9447
:10209000750D4F925F926F927F928F929F92AF9247
:1020A000BF92CF92DF92EF92FF920F931F93CF9345
:1020B000DF93B82EA92E762E672EEA01522E432EDC
:1020C00081E090E07C01E41AF50A022F132F30E042
:1020D00020E08B2D9A2D0E94E70F93E0892E912C02
:1020E000D12CC12CCC16DD068CF0DF91CF911F9145
:1020F0000F91FF90EF90DF90CF90BF90AF909F90A7
:102100008F907F906F905F904F900895F7FE13C06F
:10211000E80CF91C8FEFC81AD80A052D142D96016A
:10212000AE01672D762D8B2D9A2D0E94E70F82E050
:10213000880E911CD7CF2197A6014C1B5D0B440F35
:10214000551F4B5F5F4FE40EF51EE4CF8F929F92B9
:10215000AF92BF92CF92DF92EF92FF920F931F93B5
:10216000CF93DF93D82FC92F4B016A0179019B01CF
:102170000E94C30D9701A601B401C6010E94C30DC0
:1021800097014D2F5C2FB4018D2F9C2F0E94C30D02
:102190009701A601B7018D2F9C2F0E94C30DDF91DF
:1021A000CF911F910F91FF90EF90DF90CF90BF9054
:1021B000AF909F908F9008958F929F92AF92BF9211
:1021C000CF92DF92EF92FF920F931F93CF93DF9303
:1021D0007C016B01EA015901480148175907D4F005
:1021E00084019501A701B601C7010E94C30D8FEFBD
:1021F000E81AF80ACE15DF059CF7DF91CF911F9101
:102200000F91FF90EF90DF90CF90BF90AF909F9095
:102210008F90089584019501AE01B601CE010E9410
:10222000C30D2196EC16FD06ACF7E7CF2F923F9237
:102230004F925F926F927F928F929F92AF92BF92D6
:10224000CF92DF92EF92FF920F931F93CF93DF9382
:102250008C013C017694762C662477946794230154
:1022600080E8480E511CEB0122242394200E209775
:1022700099F4DF91CF911F910F91FF90EF90DF9034
:10228000CF90BF90AF909F908F907F906F905F9016
:102290004F903F902F900895F301EF5CFE4F4F0158
:1022A000C2018F5C9E4F5C01312CF40191914F0172
:1022B000892F880F82936F01F50181915F01880F4B
:1022C000991F9927991F892B82937F01632D802F56
:1022D0000E944D0BF60180810E94070B632D822D19
:1022E0000E944D0BF70180810E94070B3394F0E8A8
:1022F0003F12DBCF2197BBCFCF93DF93D82FC0E026
:102300006C2F8D2F0E944D0B80E00E94070BCF5F3A
:10231000C038B1F7DF91CF910895EF92FF920F93FC
:102320001F93CF938A0179010E944D0BE114F104B0
:10233000B9F1EA94EF2809F060C08AE70E94140A14
:1023400080E40E945C0A25E0209FC001219F900D3F
:1023500011249C0126593A4F790110E000E0F70161
:10236000E00FF11FC4918C2F0E945C0A20912F0175
:1023700030913001F901EF5CFE4FC0832F5F3F4F7A
:102380003093300120932F010F5F1F4F053011054F
:1023900031F7CF911F910F91FF90EF900C94860A27
:1023A0008AE70E94140A80E40E945C0A25E0209FCC
:1023B000C001219F900D11249C0126593A4F7901AB
:1023C00010E000E0F701E00FF11FC491C0958C2FE1
:1023D0000E945C0A80912F0190913001FC01EF5C1A
:1023E000FE4FC08301969093300180932F010F5FC1
:1023F0001F4F0530110531F7CCCFCF911F910F91B1
:10240000FF90EF900895A3E1B0E0E9E0F2E10C94D1
:10241000B9167C011B015A01DC0117961C921E9211
:10242000169713968C9181FF4DC3FE0131964F0193
:10243000D70113969C91F10193FD859193FF8191B2
:102440001F01882309F4F1C2853239F493FD859187
:1024500093FF81911F01853239F4B70190E00E940A
:10246000281965015601E4CF10E0712C612CBFE101
:10247000B61538F08B3211F190F4803209F18332C5
:1024800029F167FC3CC020ED280F2A3050F566FE8C
:1024900020C0EAE01E9F200D1124122F06C08D32AD
:1024A00091F0803371F7689460F8F10193FD8591A4
:1024B00093FF81911F018111DACF21C0689461F8E7
:1024C000689462F8F2CF689463F8EFCF689464F888
:1024D000ECCFFAE07F9E200D1124722E689465F8EF
:1024E000E4CF8E3229F466FCA0C2689466F8DDCF92
:1024F0008C3619F4689467F8D8CF8836B1F29BEB24
:10250000980F933008F06FC0689464F8805E66FEA0
:1025100016E0262D2F73622E853609F06CC0689464
:1025200066F867FE72C0812F1C3308F08BE34424E9
:102530004394480E27E0D5014D915D916D917D91B9
:102540006D014C875D876E877F87042DA4016C85A4
:102550007D858E859F850E943A185C01B981BC8774
:10256000B0FF03C00DE2B3FF07C00BE261FC04C083
:10257000062D047062FC00E2EC85EC705E2E09F41E
:1025800054C00111A2C2F3E0512CF715A0F483E06E
:10259000572C581A63FC08C0B70180E290E00E94F3
:1025A00028195A945110F8CF002329F0B701802F31
:1025B00090E00E942819FC8508E610E0F3FD02C0B7
:1025C0000CE610E0262D2071622EF8018491811115
:1025D00023C0552009F446CFB70180E290E00E9465
:1025E00028195A94F6CF9BE9980F933008F02DC123
:1025F000E89464F88CCF863619F4689467F891CF24
:10260000112309F48ECF11508CCF212F183010F0E8
:1026100027E017E0412C8FCF61108052B70190E086
:102620000E9428190F5F1F4FD0CF67FE7AC04A0C57
:10263000FC85F4FF04C08A81813309F44A941414A0
:102640000CF092C028E0241510F488E0482E85E0B4
:1026500090E067FE06C0C501B7FE02C080E090E0D2
:10266000019601110196112331F0212F30E02F5FE7
:102670003F4F820F931F7816190619F014F0572C4C
:10268000581A862D897011F4511073C0002329F057
:10269000B701802F90E00E94281963FC02C05110FE
:1026A0006FC067FE88C03501B7FE02C0712C612C77
:1026B000C50186199709A401480F591F598B488BEA
:1026C000B501641971097B8B6A8B012F10E011959C
:1026D00001951109A614B7040CF459C0AA89BB8945
:1026E000A615B7050CF053C0E889F9898181F1E09E
:1026F0006F1A7108601671060CF44BC0B70190E0B8
:102700000E9428192FEF6216720629F4B7018EE293
:1027100090E00E942819888999890196998B888B65
:10272000D9CF66FC94CFE12FF0E0EA15FB053CF031
:102730003CEFA3163FEFB30614F0689467F83296A7
:10274000E80DF91D01C01150112319F08291803359
:10275000D1F367FE7CCF44244394410E1A151B0429
:1027600031F02CF01A1973CF4424439470CF10E049
:102770006ECFB70180E290E00E9428195A9484CF6E
:10278000B70180E390E00E9428195A9488CF80E333
:10279000AECFA614B70441F49A81963350F4953322
:1027A00019F43C8534FF05C0B70190E00E94281958
:1027B00010CF81E3F9CF8A81813319F04C854F7EA8
:1027C0004C87B70190E00E942819112399F0B701B6
:1027D0008EE290E00E9428191E5F02E0802F0F5FBA
:1027E000F401E80FF11D8081B70190E00E942819E3
:1027F0001013F4CF85E664FC85E490E0B7010E94F5
:102800002819B7FC06C0A114B104C1F45C8554FFBB
:1028100015C0B194A194B1088DE2B70190E00E9477
:10282000281980E37AE0A716B10454F4B70190E0C8
:102830000E942819B701C501C096B8CF8BE2EDCF31
:102840008F5F6AE0A61AB108EDCF8336B9F08337FF
:1028500009F43AC0833509F04DC0D501AD90BD9063
:102860006D01612F70E066FC02C06FEF7FEFC50164
:102870000E9412198C01689467F80CC0650182E00F
:10288000C80ED11CD5018C91898301E010E0540160
:10289000E89467F863FC04C07016110609F018F597
:1028A000572C0115110509F494CEF50167FC8591AB
:1028B00067FE81915F01B70190E00E9428195110D5
:1028C0005A9401501109EDCFF501A190B1906F011B
:1028D000612F70E066FC02C06FEF7FEFC5010E94C0
:1028E0001D198C01D5CFB70180E290E00E94281914
:1028F0007A94D2CF843619F0893609F06FC067FE1A
:1029000064C0F50161917191819191916F01B62D32
:10291000BF766B2E97FF09C0909580957095619555
:102920007F4F8F4F9F4F689467F82AE030E0A401F3
:102930000E945819A82EA818BA2C062D66FE0AC0A7
:102940000E7FA11638F464FE04C062FC02C0062D9E
:102950000E7EB12E04FF8EC0FE01EA0DF11D8081B6
:10296000803309F080C0097E502F5870552E03FD2A
:1029700090C000FF8AC01A2DB71410F4170D1B1950
:1029800004FF8DC0B70180E390E00E94281902FF88
:1029900007C088E701FD88E590E0B7010E9428198B
:1029A000A11608F488C0AA940A2D10E00F5F1F4FEB
:1029B000080D191DD8018E918D01B70190E00E947C
:1029C000281908151905B1F704CED5016D917D912F
:1029D0006D01072E000C880B990B99CF062D8537BA
:1029E000E1F40F7E2AE030E007FF35C0D5014D91BC
:1029F0005D916D917D916D014C875D876E877F87BD
:102A0000A4016C857D858E859F850E945819A82E0E
:102A1000A818602EE89467F88FCF097F803791F06F
:102A200058F4883589F08F36A1F0F70186819781B7
:102A30006396E2E10C94D5168837B9F704FD04607B
:102A400020E1D1CF0061FACF64FC066020E132E0E2
:102A5000CBCF28E0C8CFF501819191916F01AC01F6
:102A600070E060E0C9CF02FD02C0B3947DCFB394A3
:102A7000B3947ACF802F867809F476CFF6CFB7015A
:102A800080E290E00E942819B394B714C0F3512C4F
:102A900077CF572C5B18B71408F472CFF8CF802F7C
:102AA000867809F47DCF8BE201FF80E207FD8DE29D
:102AB000B70190E073CFB70180E390E00E9428193E
:102AC00011506ECF8FEF9FEFB3CF24E0512C27151D
:102AD00008F06CCD84E05CCD00D000D0CDB7DEB77F
:102AE00080E880936100109261000E94230D61E0F4
:102AF00070E08AE691E00E94A20C2FEF33ED80E3B4
:102B0000215030408040E1F700C000000E94020DDB
:102B100021E030E04BE250E070E060E080E091E0E6
:102B20000E94010C01E010E02FE730E04AE050E0A5
:102B300070E060E08AE090E00E94C30D21E030E0A8
:102B400045E550E062E070E088E091E00E94010C11
:102B500021E030E045E550E063E070E08DE091E099
:102B60000E94010C21E030E045E550E064E070E0B7
:102B700082E191E00E94010C21E030E045E550E067
:102B800065E070E087E191E00E94010C21E030E017
:102B900045E550E066E070E08CE191E00E94010CB8
:102BA00020E530E043E350E06EE170E083E190E047
:102BB0000E94A61041E050E061E570E083E190E002
:102BC0000E94750D41E050E061E570E08BE190E01E
:102BD0000E94750D41E050E061E570E083E290E015
:102BE0000E94750D41E050E061E570E08BE290E0FD
:102BF0000E94750D41E050E061E570E083E390E0F4
:102C00000E94750D0E94EB0983E3E82EF12C80E011
:102C10000E94F50990932E0180932D01092E000C3E
:102C2000AA0BBB0B89839A83AB83BC83BC01CD0108
:102C30000E94AE1721E73DE348EF51E469837A83B0
:102C40008B839C8369817A818B819C810E9404178C
:102C500069837A838B839C8369817A818B819C8150
:102C60000E947617462F572F6A01509327014093F1
:102C70002601A0912401B0912501BA83A9834A1BA2
:102C80005B0B50932301409322014115510509F438
:102C9000BECF54F580912401909125018C159D059E
:102CA00064F1C7018C199D0910E000E02FE430E0C9
:102CB000AC016FE170E00E94C30D8FEFC81AD80A13
:102CC000E9CFC70129813A81821B930B01E010E013
:102CD0002FE430E0AC016FE170E00E94C30D898108
:102CE0009A8101969A838983809126019091270188
:102CF000A981BA818A179B0724F701E010E02FE42D
:102D000030E043E350E06FE170E083E390E00E9445
:102D1000C30D2FE430E043E150E06FE170E083E168
:102D200090E00E94C30DBFEF25EA3EE0B150204085
:102D30003040E1F700C0000080912601909127010A
:102D4000909325018093240162CF97FB072E16F400
:102D5000009407D077FD09D00E94F01607FC05D03B
:102D60003EF4909581959F4F0895709561957F4FA2
:102D700008952F923F924F925F926F927F928F921F
:102D80009F92AF92BF92CF92DF92EF92FF920F93FA
:102D90001F93CF93DF93CDB7DEB7CA1BDB0B0FB604
:102DA000F894DEBF0FBECDBF09942A8839884888C1
:102DB0005F846E847D848C849B84AA84B984C88457
:102DC000DF80EE80FD800C811B81AA81B981CE0F4E
:102DD000D11D0FB6F894DEBF0FBECDBFED01089533
:102DE000AA1BBB1B51E107C0AA1FBB1FA617B70731
:102DF00010F0A61BB70B881F991F5A95A9F780954D
:102E00009095BC01CD0108950E9418170C940018EC
:102E10000E94F91758F00E94F21740F029F45F3F22
:102E200029F00C94E91751110C9434180C94EF17F5
:102E30000E94111868F39923B1F3552391F3951B60
:102E4000550BBB27AA2762177307840738F09F5FCB
:102E50005F4F220F331F441FAA1FA9F335D00E2E38
:102E60003AF0E0E832D091505040E695001CCAF7A5
:102E70002BD0FE2F29D0660F771F881FBB1F261768
:102E800037074807AB07B0E809F0BB0B802DBF013F
:102E9000FF2793585F4F3AF09E3F510578F00C940E
:102EA000E9170C9434185F3FE4F3983ED4F3869509
:102EB00077956795B795F7959F5FC9F7880F911D2F
:102EC0009695879597F90895E1E0660F771F881F1B
:102ED000BB1F621773078407BA0720F0621B730BCE
:102EE000840BBA0BEE1F88F7E09508950E947D17BA
:102EF0006894B1110C94341808950E94191888F040
:102F00009F5798F0B92F9927B751B0F0E1F0660FAD
:102F1000771F881F991F1AF0BA95C9F714C0B130EE
:102F200091F00E943318B1E008950C943318672F84
:102F3000782F8827B85F39F0B93FCCF3869577951D
:102F40006795B395D9F73EF4909580957095619506
:102F50007F4F8F4F9F4F0895E89409C097FB3EF431
:102F600090958095709561957F4F8F4F9F4F9923D6
:102F7000A9F0F92F96E9BB279395F6958795779554
:102F80006795B795F111F8CFFAF4BB0F11F460FF14
:102F90001BC06F5F7F4F8F4F9F4F16C0882311F06C
:102FA00096E911C0772321F09EE8872F762F05C080
:102FB000662371F096E8862F70E060E02AF09A951B
:102FC000660F771F881FDAF7880F9695879597F910
:102FD000089597F99F6780E870E060E008959FEF9B
:102FE00080EC089500240A941616170618060906A0
:102FF000089500240A94121613061406050608956F
:10300000092E0394000C11F4882352F0BB0F40F4F6
:10301000BF2B11F460FF04C06F5F7F4F8F4F9F4F36
:10302000089557FD9058440F551F59F05F3F71F0B8
:103030004795880F97FB991F61F09F3F79F087951F
:103040000895121613061406551FF2CF4695F1DFA8
:1030500008C0161617061806991FF1CF8695710538
:10306000610508940895E894BB2766277727CB016C
:1030700097F90895283008F027E03327DA01990FEF
:10308000311D87FD916000966105710539F432604C
:103090002E5F3D9330E32A95E1F708959F3F30F08E
:1030A00080387105610509F03C5F3C5F3D939130CC
:1030B00008F08068911DDF93CF931F930F93FF92C9
:1030C000EF92192F987F9695E92F96959695E90F8F
:1030D000FF27E653FF4F99273327EE24FF24A7014C
:1030E000E70105900894079428F4360FE71EF81EB0
:1030F000491F511D660F771F881F991F0694A1F75E
:103100000590079428F4E70EF81E491F561FC11DAD
:10311000770F881F991F661F0694A1F705900794E3
:1031200028F4F80E491F561FC71FD11D880F991F7D
:10313000661F771F0694A1F70590079420F4490FA6
:10314000561FC71FD81F990F661F771F881F069429
:10315000A9F784911095177041F0D695C7955795AA
:103160004795F794E7941A95C1F7E0E7F0E0689483
:103170001590159135916591959105907FE2739524
:10318000E118F10A430B560BC90BD009C0F7E10C4B
:10319000F11E431F561FC91FD01D7EF4703311F45A
:1031A0008A95E6CFE894015030F0080F0AF4002722
:1031B000021708F4202F2395022F7A3328F079E3A1
:1031C0007D932A95E9F710C07D932A9589F6069498
:1031D00097956795379517951794E118F10A430B62
:1031E000560BC90BD00998F023957E9173957A33CD
:1031F00008F070E37C932013B8F77E9170617D93A3
:1032000030F0839571E37D9370E32A95E1F7112403
:10321000EF90FF900F911F91CF91DF91992787FD3C
:1032200090950895FC010590615070400110D8F709
:10323000809590958E0F9F1F0895FC0161507040FE
:1032400001900110D8F7809590958E0F9F1F0895DB
:103250000F931F93CF93DF93182F092FEB018B81CF
:1032600081FD09C01FEF0FEF812F902FDF91CF91CC
:103270001F910F91089582FF14C02E813F818C8190
:103280009D81281739073CF4E881F981CF01019627
:103290009983888310838E819F8101969F838E837B
:1032A000E3CFE885F985812F0995892BA1F3DACF42
:1032B000FA01AA27283051F1203181F1E8946F9367
:1032C0006E7F6E5F7F4F8F4F9F4FAF4FB1E03ED00D
:1032D000B4E03CD0670F781F891F9A1FA11D680FAB
:1032E000791F8A1F911DA11D6A0F711D811D911DDE
:1032F000A11D20D009F468943F912AE0269F112453
:103300003019305D3193DEF6CF010895462F4770B6
:10331000405D4193B3E00FD0C9F7F6CF462F4F7011
:10332000405D4A3318F0495D31FD4052419302D06F
:10333000A9F7EACFB4E0A695979587957795679515
:10334000BA95C9F700976105710508959B01AC0115
:103350000A2E06945795479537952795BA95C9F73C
:10336000620F731F841F951FA01D0895F894FFCF4F
:1033700042415454455259003130323400373638C6
:103380002000353132200032353620003020202018
:0233900000003B
:00000001FF
