:100000000C94B5000C94CA000C94CA000C94CA005D
:100010000C94CA000C94CA000C94CA000C94CA0038
:100020000C94CA000C94CA000C94CA000C94CA0028
:100030000C94CA000C94CA000C94CA000C94CA0018
:100040000C94CA000C94CA000C94CA000C94CA0008
:100050000C94CA000C94CA000C94CA000C94CA00F8
:100060000C94CA000C94CA006E616E00696E660042
:1000700000407A10F35A00A0724E18090010A5D45F
:10008000E80000E87648170000E40B54020000CABC
:100090009A3B000000E1F505000080969800000002
:1000A00040420F000000A086010000001027000061
:1000B0000000E803000000006400000000000A00E7
:1000C000000000000100000000002C76D888DC67EA
:1000D0004F0823DFC1DFAE59E1B1B796E5E3E45342
:1000E000C63AE651997696E8E6C28426EB898C9B5F
:1000F00062ED407C6FFCEFBC9C9F40F2BAA56FA5FF
:10010000F490055A2AF75C936B6CF9676DC11BFC80
:10011000E0E40D47FEF520E6B500D0ED902E03009B
:10012000943577050080841E080000204E0A0000E8
:1001300000C80C333333330F986E12831141EF8DA7
:100140002114893BE65516CFFEE6DB18D1844B38E7
:100150001BF77C1D901DA4BBE424203284725E2218
:100160008100C9F124ECA1E53D2711241FBECFEF8A
:10017000D8E0DEBFCDBF11E0A0E0B1E0E8E5FCE0F3
:1001800002C005900D92AC30B107D9F70E9461040E
:100190000C942A060C940000FB9A8FB780688FBFDE
:1001A00008959C01F999FECF32BD21BD81E08FBB3E
:1001B00080B508959C01F999FECF32BD21BD60BD87
:1001C00084E08FBBF99A08959C01FB0194E0819132
:1001D000811101C00895F999FECF32BD21BDDF0123
:1001E00011978C9180BD9FBBF99A2F5F3F4FEFCF46
:1001F000A3E1B0E0EEEFF0E00C9477047C011B018A
:100200005A01DC0117961C921E92169713968C9138
:1002100081FF4DC3FE0131964F01D70113969C918A
:10022000F10193FD859193FF81911F01882309F4CA
:10023000F1C2853239F493FD859193FF81911F01BD
:10024000853239F4B70190E00E949C0565015601A2
:10025000E4CF10E0712C612CBFE1B61538F08B3281
:1002600011F190F4803209F1833229F167FC3CC02E
:1002700020ED280F2A3050F566FE20C0EAE01E9FD0
:10028000200D1124122F06C08D3291F0803371F7AA
:10029000689460F8F10193FD859193FF81911F01AE
:1002A0008111DACF21C0689461F8689462F8F2CFC6
:1002B000689463F8EFCF689464F8ECCFFAE07F9E1F
:1002C000200D1124722E689465F8E4CF8E3229F443
:1002D00066FCA0C2689466F8DDCF8C3619F4689489
:1002E00067F8D8CF8836B1F29BEB980F933008F0BF
:1002F0006FC0689464F8805E66FE16E0262D2F734A
:10030000622E853609F06CC0689466F867FE72C08C
:10031000812F1C3308F08BE344244394480E27E0DC
:10032000D5014D915D916D917D916D014C875D87FA
:100330006E877F87042DA4016C857D858E859F85C2
:100340000E94AE045C01B981BC87B0FF03C00DE21E
:10035000B3FF07C00BE261FC04C0062D047062FC11
:1003600000E2EC85EC705E2E09F454C00111A2C2CB
:10037000F3E0512CF715A0F483E0572C581A63FCD6
:1003800008C0B70180E290E00E949C055A94511089
:10039000F8CF002329F0B701802F90E00E949C0540
:1003A000FC8508E610E0F3FD02C00CE610E0262D07
:1003B0002071622EF8018491811123C0552009F427
:1003C00046CFB70180E290E00E949C055A94F6CF98
:1003D0009BE9980F933008F02DC1E89464F88CCF16
:1003E000863619F4689467F891CF112309F48ECFFB
:1003F00011508CCF212F183010F027E017E0412C3E
:100400008FCF61108052B70190E00E949C050F5F72
:100410001F4FD0CF67FE7AC04A0CFC85F4FF04C0A2
:100420008A81813309F44A9414140CF092C028E0B4
:10043000241510F488E0482E85E090E067FE06C0A1
:10044000C501B7FE02C080E090E00196011101965F
:10045000112331F0212F30E02F5F3F4F820F931F88
:100460007816190619F014F0572C581A862D897031
:1004700011F4511073C0002329F0B701802F90E0D0
:100480000E949C0563FC02C051106FC067FE88C0CB
:100490003501B7FE02C0712C612CC5018619970980
:1004A000A401480F591F598B488BB5016419710974
:1004B0007B8B6A8B012F10E0119501951109A61411
:1004C000B7040CF459C0AA89BB89A615B7050CF06E
:1004D00053C0E889F9898181F1E06F1A71086016CB
:1004E00071060CF44BC0B70190E00E949C052FEF01
:1004F0006216720629F4B7018EE290E00E949C0514
:10050000888999890196998B888BD9CF66FC94CF7D
:10051000E12FF0E0EA15FB053CF03CEFA3163FEFBE
:10052000B30614F0689467F83296E80DF91D01C01F
:100530001150112319F082918033D1F367FE7CCFE3
:1005400044244394410E1A151B0431F02CF01A195F
:1005500073CF4424439470CF10E06ECFB70180E294
:1005600090E00E949C055A9484CFB70180E390E00C
:100570000E949C055A9488CF80E3AECFA614B7049E
:1005800041F49A81963350F4953319F43C8534FF45
:1005900005C0B70190E00E949C0510CF81E3F9CF20
:1005A0008A81813319F04C854F7E4C87B70190E0EA
:1005B0000E949C05112399F0B7018EE290E00E9401
:1005C0009C051E5F02E0802F0F5FF401E80FF11D14
:1005D0008081B70190E00E949C051013F4CF85E65E
:1005E00064FC85E490E0B7010E949C05B7FC06C05E
:1005F000A114B104C1F45C8554FF15C0B194A19459
:10060000B1088DE2B70190E00E949C0580E37AE09A
:10061000A716B10454F4B70190E00E949C05B701FD
:10062000C501C096B8CF8BE2EDCF8F5F6AE0A61A06
:10063000B108EDCF8336B9F0833709F43AC083357A
:1006400009F04DC0D501AD90BD906D01612F70E0F6
:1006500066FC02C06FEF7FEFC5010E9486058C012A
:10066000689467F80CC0650182E0C80ED11CD50102
:100670008C91898301E010E05401E89467F863FCF1
:1006800004C07016110609F018F5572C0115110554
:1006900009F494CEF50167FC859167FE81915F01B5
:1006A000B70190E00E949C0551105A940150110925
:1006B000EDCFF501A190B1906F01612F70E066FC64
:1006C00002C06FEF7FEFC5010E9491058C01D5CF6D
:1006D000B70180E290E00E949C057A94D2CF8436E4
:1006E00019F0893609F06FC067FE64C0F5016191A9
:1006F0007191819191916F01B62DBF766B2E97FF0D
:1007000009C090958095709561957F4F8F4F9F4F51
:10071000689467F82AE030E0A4010E94CC05A82E76
:10072000A818BA2C062D66FE0AC00E7FA11638F452
:1007300064FE04C062FC02C0062D0E7EB12E04FFD2
:100740008EC0FE01EA0DF11D8081803309F080C06A
:10075000097E502F5870552E03FD90C000FF8AC0AF
:100760001A2DB71410F4170D1B1904FF8DC0B70113
:1007700080E390E00E949C0502FF07C088E701FD2E
:1007800088E590E0B7010E949C05A11608F488C096
:10079000AA940A2D10E00F5F1F4F080D191DD801F4
:1007A0008E918D01B70190E00E949C0508151905F6
:1007B000B1F704CED5016D917D916D01072E000C2E
:1007C000880B990B99CF062D8537E1F40F7E2AE02F
:1007D00030E007FF35C0D5014D915D916D917D9160
:1007E0006D014C875D876E877F87A4016C857D8551
:1007F0008E859F850E94CC05A82EA818602EE894AF
:1008000067F88FCF097F803791F058F4883589F0E9
:100810008F36A1F0F701868197816396E2E10C940F
:1008200093048837B9F704FD046020E1D1CF00615B
:10083000FACF64FC066020E132E0CBCF28E0C8CFDD
:10084000F501819191916F01AC0170E060E0C9CF39
:1008500002FD02C0B3947DCFB394B3947ACF802FBE
:10086000867809F476CFF6CFB70180E290E00E9457
:100870009C05B394B714C0F3512C77CF572C5B1859
:10088000B71408F472CFF8CF802F867809F47DCFA3
:100890008BE201FF80E207FD8DE2B70190E073CFAC
:1008A000B70180E390E00E949C0511506ECF8FEF5E
:1008B0009FEFB3CF24E0512C271508F06CCD84E0D6
:1008C0005CCD80E880936100109261006FE085E06C
:1008D00090E00E94DA0060EF87E090E00E94DA008A
:1008E00060E071E080E290E00E94E400FFCF2F9290
:1008F0003F924F925F926F927F928F929F92AF92B0
:10090000BF92CF92DF92EF92FF920F931F93CF93FC
:10091000DF93CDB7DEB7CA1BDB0B0FB6F894DEBF93
:100920000FBECDBF09942A88398848885F846E84B9
:100930007D848C849B84AA84B984C884DF80EE8003
:10094000FD800C811B81AA81B981CE0FD11D0FB60C
:10095000F894DEBF0FBECDBFED010895283008F03A
:1009600027E03327DA01990F311D87FD916000964A
:100970006105710539F432602E5F3D9330E32A95AD
:10098000E1F708959F3F30F080387105610509F067
:100990003C5F3C5F3D93913008F08068911DDF9390
:1009A000CF931F930F93FF92EF92192F987F9695F5
:1009B000E92F96959695E90FFF27E653FF4F992764
:1009C0003327EE24FF24A701E7010590089407943C
:1009D00028F4360FE71EF81E491F511D660F771FBA
:1009E000881F991F0694A1F70590079428F4E70E35
:1009F000F81E491F561FC11D770F881F991F661FBC
:100A00000694A1F70590079428F4F80E491F561F85
:100A1000C71FD11D880F991F661F771F0694A1F766
:100A20000590079420F4490F561FC71FD81F990F30
:100A3000661F771F881F0694A9F784911095177079
:100A400041F0D695C79557954795F794E7941A9531
:100A5000C1F7E0E7F0E06894159015913591659144
:100A6000959105907FE27395E118F10A430B560BBF
:100A7000C90BD009C0F7E10CF11E431F561FC91F57
:100A8000D01D7EF4703311F48A95E6CFE8940150BE
:100A900030F0080F0AF40027021708F4202F2395DE
:100AA000022F7A3328F079E37D932A95E9F710C075
:100AB0007D932A9589F606949795679537951795AE
:100AC0001794E118F10A430B560BC90BD00998F0A3
:100AD00023957E9173957A3308F070E37C9320130D
:100AE000B8F77E9170617D9330F0839571E37D93CB
:100AF00070E32A95E1F71124EF90FF900F911F9179
:100B0000CF91DF91992787FD90950895FC0105907D
:100B1000615070400110D8F7809590958E0F9F1FFF
:100B20000895FC016150704001900110D8F7809544
:100B300090958E0F9F1F08950F931F93CF93DF9370
:100B4000182F092FEB018B8181FD09C01FEF0FEFDB
:100B5000812F902FDF91CF911F910F91089582FFE8
:100B600014C02E813F818C819D81281739073CF468
:100B7000E881F981CF0101969983888310838E8162
:100B80009F8101969F838E83E3CFE885F985812F2E
:100B90000995892BA1F3DACFFA01AA27283051F160
:100BA000203181F1E8946F936E7F6E5F7F4F8F4F9E
:100BB0009F4FAF4FB1E03ED0B4E03CD0670F781FFD
:100BC000891F9A1FA11D680F791F8A1F911DA11DE2
:100BD0006A0F711D811D911DA11D20D009F468941B
:100BE0003F912AE0269F11243019305D3193DEF6C3
:100BF000CF010895462F4770405D4193B3E00FD079
:100C0000C9F7F6CF462F4F70405D4A3318F0495D63
:100C100031FD4052419302D0A9F7EACFB4E0A69546
:100C20009795879577956795BA95C9F70097610568
:100C3000710508959B01AC010A2E069457954795BE
:100C400037952795BA95C9F7620F731F841F951FB3
:080C5000A01D0895F894FFCFE8
:0C0C580068656C6C6F20776F726C640034
:00000001FF
