:100000000C94B5000C94D2000C94D2000C94D20045
:100010000C94D2000C94D2000C94D2000C94D20018
:100020000C94D2000C94D2000C94D2000C94D20008
:100030000C94D2000C94D2000C94D2000C94D200F8
:100040000C94D2000C94D2000C94D2000C94D200E8
:100050000C94D2000C94D2000C94D2000C94D200D8
:100060000C94D2000C94D2006E616E00696E660032
:1000700000407A10F35A00A0724E18090010A5D45F
:10008000E80000E87648170000E40B54020000CABC
:100090009A3B000000E1F505000080969800000002
:1000A00040420F000000A086010000001027000061
:1000B0000000E803000000006400000000000A00E7
:1000C000000000000100000000002C76D888DC67EA
:1000D0004F0823DFC1DFAE59E1B1B796E5E3E45342
:1000E000C63AE651997696E8E6C28426EB898C9B5F
:1000F00062ED407C6FFCEFBC9C9F40F2BAA56FA5FF
:10010000F490055A2AF75C936B6CF9676DC11BFC80
:10011000E0E40D47FEF520E6B500D0ED902E03009B
:10012000943577050080841E080000204E0A0000E8
:1001300000C80C333333330F986E12831141EF8DA7
:100140002114893BE65516CFFEE6DB18D1844B38E7
:100150001BF77C1D901DA4BBE424203284725E2218
:100160008100C9F124ECA1E53D2711241FBECFEF8A
:10017000D8E0DEBFCDBF11E0A0E0B1E0EAEAF2E1F5
:1001800002C005900D92AA32B107D9F721E0AAE288
:10019000B1E001C01D92A533B207E1F70E948905C5
:1001A0000C9453090C940000EAE7F0E08081876822
:1001B0008083ECE7F0E080818083089590917C005B
:1001C000907F8F70982B90937C0080917A00806450
:1001D00080937A0080917A0084FFFCCF8091780030
:1001E00090917900089584FF27C02A9A85FF26C040
:1001F0002B9A86FF25C02C9A87FF24C02D9A299A16
:10020000EFE8F1E03197F1F700C00000299880FF96
:100210001BC02A9A81FF1AC02B9A82FF19C02C9A00
:1002200083FF18C02D9A299A8FE891E00197F1F782
:1002300000C00000299808952A98D8CF2B98D9CFCC
:100240002C98DACF2D98DBCF2A98E4CF2B98E5CFE6
:100250002C98E6CF2D98E7CF289884FF13C02A9AD0
:1002600085FF12C02B9A86FF11C02C9A87FF10C001
:100270002D9A299A8FE891E00197F1F700C00000CC
:10028000299808952A98ECCF2B98EDCF2C98EECF93
:100290002D98EFCFCF93C82F28980E94F300C3303A
:1002A00040F48FE39FE10197F1F700C00000CF9188
:1002B00008958FE99FE00197F1F7F7CF289A0E9400
:1002C000F3008FE99FE00197F1F700C00000089567
:1002D000CF93DF93EC018991811103C0DF91CF911E
:1002E00008950E945E01F7CF209A219A229A239ABC
:1002F000249A259A2FEF8DEE92E021508040904075
:10030000E1F700C0000080E30E942C018FE19EE431
:100310000197F1F700C0000080E30E942C018FE9F3
:100320009FE00197F1F700C0000080E30E942C01DC
:1003300080E20E942C0188E20E944A018CE00E9427
:100340004A0186E00E944A0181E00E944A018FE34F
:100350009CE90197F1F700C0000008959C01862FE9
:100360002230310589F044F42115310551F08054D3
:100370002130310539F0089580532330310511F0D3
:10038000089580580C944A018057FCCF0F931F9317
:10039000CF93DF938A010E94AE01E8018991811118
:1003A00005C0DF91CF911F910F9108950E945E01CA
:1003B000F5CFEF92FF920F931F93CF93DF937A01C4
:1003C00089010E94AE01E701F12CE12CE016F10653
:1003D0003CF0DF91CF911F910F91FF90EF90089526
:1003E00089910E945E018FEFE81AF80AEFCF27E6A5
:1003F0002093C4001092C50028E12093C10026E09C
:100400002093C200019741F48FB780688FBF80911D
:10041000C10080688093C10008959091C00095FF4D
:10042000FCCF8093C6000895CF93DF93EC018991B0
:10043000811103C0DF91CF9108950E940D02F7CF83
:10044000A3E1B0E0E6E2F2E00C9482067C011B013D
:100450005A01DC0117961C921E92169713968C91E6
:1004600081FF4DC3FE0131964F01D70113969C9138
:10047000F10193FD859193FF81911F01882309F478
:10048000F1C2853239F493FD859193FF81911F016B
:10049000853239F4B70190E00E94A2086501560147
:1004A000E4CF10E0712C612CBFE1B61538F08B322F
:1004B00011F190F4803209F1833229F167FC3CC0DC
:1004C00020ED280F2A3050F566FE20C0EAE01E9F7E
:1004D000200D1124122F06C08D3291F0803371F758
:1004E000689460F8F10193FD859193FF81911F015C
:1004F0008111DACF21C0689461F8689462F8F2CF74
:10050000689463F8EFCF689464F8ECCFFAE07F9ECC
:10051000200D1124722E689465F8E4CF8E3229F4F0
:1005200066FCA0C2689466F8DDCF8C3619F4689436
:1005300067F8D8CF8836B1F29BEB980F933008F06C
:100540006FC0689464F8805E66FE16E0262D2F73F7
:10055000622E853609F06CC0689466F867FE72C03A
:10056000812F1C3308F08BE344244394480E27E08A
:10057000D5014D915D916D917D916D014C875D87A8
:100580006E877F87042DA4016C857D858E859F8570
:100590000E94B4075C01B981BC87B0FF03C00DE2C3
:1005A000B3FF07C00BE261FC04C0062D047062FCBF
:1005B00000E2EC85EC705E2E09F454C00111A2C279
:1005C000F3E0512CF715A0F483E0572C581A63FC84
:1005D00008C0B70180E290E00E94A2085A9451102E
:1005E000F8CF002329F0B701802F90E00E94A208E5
:1005F000FC8508E610E0F3FD02C00CE610E0262DB5
:100600002071622EF8018491811123C0552009F4D4
:1006100046CFB70180E290E00E94A2085A94F6CF3C
:100620009BE9980F933008F02DC1E89464F88CCFC3
:10063000863619F4689467F891CF112309F48ECFA8
:1006400011508CCF212F183010F027E017E0412CEB
:100650008FCF61108052B70190E00E94A2080F5F17
:100660001F4FD0CF67FE7AC04A0CFC85F4FF04C050
:100670008A81813309F44A9414140CF092C028E062
:10068000241510F488E0482E85E090E067FE06C04F
:10069000C501B7FE02C080E090E00196011101960D
:1006A000112331F0212F30E02F5F3F4F820F931F36
:1006B0007816190619F014F0572C581A862D8970DF
:1006C00011F4511073C0002329F0B701802F90E07E
:1006D0000E94A20863FC02C051106FC067FE88C070
:1006E0003501B7FE02C0712C612CC501861997092E
:1006F000A401480F591F598B488BB5016419710922
:100700007B8B6A8B012F10E0119501951109A614BE
:10071000B7040CF459C0AA89BB89A615B7050CF01B
:1007200053C0E889F9898181F1E06F1A7108601678
:1007300071060CF44BC0B70190E00E94A2082FEFA5
:100740006216720629F4B7018EE290E00E94A208B8
:10075000888999890196998B888BD9CF66FC94CF2B
:10076000E12FF0E0EA15FB053CF03CEFA3163FEF6C
:10077000B30614F0689467F83296E80DF91D01C0CD
:100780001150112319F082918033D1F367FE7CCF91
:1007900044244394410E1A151B0431F02CF01A190D
:1007A00073CF4424439470CF10E06ECFB70180E242
:1007B00090E00E94A2085A9484CFB70180E390E0B1
:1007C0000E94A2085A9488CF80E3AECFA614B70443
:1007D00041F49A81963350F4953319F43C8534FFF3
:1007E00005C0B70190E00E94A20810CF81E3F9CFC5
:1007F0008A81813319F04C854F7E4C87B70190E098
:100800000E94A208112399F0B7018EE290E00E94A5
:10081000A2081E5F02E0802F0F5FF401E80FF11DB8
:100820008081B70190E00E94A2081013F4CF85E602
:1008300064FC85E490E0B7010E94A208B7FC06C002
:10084000A114B104C1F45C8554FF15C0B194A19406
:10085000B1088DE2B70190E00E94A20880E37AE03F
:10086000A716B10454F4B70190E00E94A208B701A2
:10087000C501C096B8CF8BE2EDCF8F5F6AE0A61AB4
:10088000B108EDCF8336B9F0833709F43AC0833528
:1008900009F04DC0D501AD90BD906D01612F70E0A4
:1008A00066FC02C06FEF7FEFC5010E948C088C01CF
:1008B000689467F80CC0650182E0C80ED11CD501B0
:1008C0008C91898301E010E05401E89467F863FC9F
:1008D00004C07016110609F018F5572C0115110502
:1008E00009F494CEF50167FC859167FE81915F0163
:1008F000B70190E00E94A20851105A9401501109CA
:10090000EDCFF501A190B1906F01612F70E066FC11
:1009100002C06FEF7FEFC5010E9497088C01D5CF11
:10092000B70180E290E00E94A2087A94D2CF843688
:1009300019F0893609F06FC067FE64C0F501619156
:100940007191819191916F01B62DBF766B2E97FFBA
:1009500009C090958095709561957F4F8F4F9F4FFF
:10096000689467F82AE030E0A4010E94F508A82EF8
:10097000A818BA2C062D66FE0AC00E7FA11638F400
:1009800064FE04C062FC02C0062D0E7EB12E04FF80
:100990008EC0FE01EA0DF11D8081803309F080C018
:1009A000097E502F5870552E03FD90C000FF8AC05D
:1009B0001A2DB71410F4170D1B1904FF8DC0B701C1
:1009C00080E390E00E94A20802FF07C088E701FDD3
:1009D00088E590E0B7010E94A208A11608F488C03B
:1009E000AA940A2D10E00F5F1F4F080D191DD801A2
:1009F0008E918D01B70190E00E94A208081519059B
:100A0000B1F704CED5016D917D916D01072E000CDB
:100A1000880B990B99CF062D8537E1F40F7E2AE0DC
:100A200030E007FF35C0D5014D915D916D917D910D
:100A30006D014C875D876E877F87A4016C857D85FE
:100A40008E859F850E94F508A82EA818602EE89430
:100A500067F88FCF097F803791F058F4883589F097
:100A60008F36A1F0F701868197816396E2E10C94BD
:100A70009E068837B9F704FD046020E1D1CF0061FC
:100A8000FACF64FC066020E132E0CBCF28E0C8CF8B
:100A9000F501819191916F01AC0170E060E0C9CFE7
:100AA00002FD02C0B3947DCFB394B3947ACF802F6C
:100AB000867809F476CFF6CFB70180E290E00E9405
:100AC000A208B394B714C0F3512C77CF572C5B18FE
:100AD000B71408F472CFF8CF802F867809F47DCF51
:100AE0008BE201FF80E207FD8DE2B70190E073CF5A
:100AF000B70180E390E00E94A20811506ECF8FEF03
:100B00009FEFB3CF24E0512C271508F06CCD84E083
:100B10005CCD00D000D0CDB7DEB780E88093610017
:100B2000109261000E94740140E051E070E060E0CA
:100B300090E080E00E94C6014CE051E070E060E08F
:100B400081E090E00E94C60148E151E070E060E081
:100B500082E090E00E94C6010E94D4002FEF39E6A7
:100B600048E1215030404040E1F700C0000004E27D
:100B700011E080E00E94DE00909334018093330105
:100B80008FE19EE40197F1F700C0000081E00E9430
:100B9000DE0090933201809331018FE19EE4019752
:100BA000F1F700C0000082E00E94DE009093300167
:100BB00080932F018FE19EE40197F1F700C00000C0
:100BC00080913301909134019C0150E040E02983F1
:100BD0003A834B835C83CA01B9010E94B90625E3BD
:100BE0003EE54AEF5EE369837A838B839C83698168
:100BF0007A818B819C810E94F6069F938F937F93CD
:100C00006F931F930F934AE251E05F934F930E94BB
:100C1000D2084AE251E06BE070E090E080E00E9490
:100C2000C60180913101909132019C0150E040E079
:100C300029833A834B835C83CA01B9010E94B906B8
:100C400025E33EE54AEF5EE369837A838B839C83E9
:100C500069817A818B819C810E94F6069F938F9394
:100C60007F936F931F930F934AE251E05F934F93EB
:100C70000E94D2084AE251E06BE070E081E090E02F
:100C80000E94C60180912F01909130019C0150E09B
:100C900040E029833A834B835C83CA01B9010E94F7
:100CA000B90625E33EE54AEF5EE369837A838B83E9
:100CB0009C8369817A818B819C810E94F6069F9337
:100CC0008F937F936F931F930F934AE251E05F934B
:100CD0004F930E94D2084AE251E06BE070E082E05C
:100CE00090E00E94C6019FEF23EC39E09150204034
:100CF0003040E1F700C000000FB6F894DEBF0FBE31
:100D0000CDBF37CF2F923F924F925F926F927F92DB
:100D10008F929F92AF92BF92CF92DF92EF92FF920B
:100D20000F931F93CF93DF93CDB7DEB7CA1BDB0BB7
:100D30000FB6F894DEBF0FBECDBF09942A8839885C
:100D400048885F846E847D848C849B84AA84B98463
:100D5000C884DF80EE80FD800C811B81AA81B9816F
:100D6000CE0FD11D0FB6F894DEBF0FBECDBFED0183
:100D70000895E89409C097FB3EF49095809570958E
:100D800061957F4F8F4F9F4F9923A9F0F92F96E9D7
:100D9000BB279395F695879577956795B795F1114C
:100DA000F8CFFAF4BB0F11F460FF1BC06F5F7F4FE9
:100DB0008F4F9F4F16C0882311F096E911C07723FB
:100DC00021F09EE8872F762F05C0662371F096E804
:100DD000862F70E060E02AF09A95660F771F881FD3
:100DE000DAF7880F9695879597F908950E94090775
:100DF0000C947A070E946C0738F00E94730720F069
:100E0000952311F00C9463070C94690711240C943A
:100E1000AE070E948B0770F3959FC1F3950F50E0CA
:100E2000551F629FF001729FBB27F00DB11D639F9C
:100E3000AA27F00DB11DAA1F649F6627B00DA11D42
:100E4000661F829F2227B00DA11D621F739FB00DE8
:100E5000A11D621F839FA00D611D221F749F332758
:100E6000A00D611D231F849F600D211D822F762FF1
:100E70006A2F11249F5750409AF0F1F088234AF0CE
:100E8000EE0FFF1FBB1F661F771F881F915050403A
:100E9000A9F79E3F510580F00C9463070C94AE07B0
:100EA0005F3FE4F3983ED4F3869577956795B795C1
:100EB000F795E7959F5FC1F7FE2B880F911D9695DB
:100EC000879597F9089597F99F6780E870E060E04B
:100ED00008959FEF80EC089500240A9416161706D3
:100EE00018060906089500240A941216130614061B
:100EF00005060895092E0394000C11F4882352F07E
:100F0000BB0F40F4BF2B11F460FF04C06F5F7F4F35
:100F10008F4F9F4F089557FD9058440F551F59F01C
:100F20005F3F71F04795880F97FB991F61F09F3FD6
:100F300079F087950895121613061406551FF2CFFF
:100F40004695F1DF08C0161617061806991FF1CF4F
:100F500086957105610508940895E894BB27662776
:100F60007727CB0197F90895283008F027E0332739
:100F7000DA01990F311D87FD9160009661057105B9
:100F800039F432602E5F3D9330E32A95E1F70895FE
:100F90009F3F30F080387105610509F03C5F3C5F90
:100FA0003D93913008F08068911DDF93CF931F939C
:100FB0000F93FF92EF92192F987F9695E92F9695B0
:100FC0009695E90FFF27E653FF4F99273327EE2425
:100FD000FF24A701E70105900894079428F4360F31
:100FE000E71EF81E491F511D660F771F881F991FA6
:100FF0000694A1F70590079428F4E70EF81E491F00
:10100000561FC11D770F881F991F661F0694A1F7F1
:101010000590079428F4F80E491F561FC71FD11DCD
:10102000880F991F661F771F0694A1F705900794F4
:1010300020F4490F561FC71FD81F990F661F771F2F
:10104000881F0694A9F784911095177041F0D695E2
:10105000C79557954795F794E7941A95C1F7E0E738
:10106000F0E06894159015913591659195910590F2
:101070007FE27395E118F10A430B560BC90BD009B7
:10108000C0F7E10CF11E431F561FC91FD01D7EF48F
:10109000703311F48A95E6CFE894015030F0080FD0
:1010A0000AF40027021708F4202F2395022F7A3321
:1010B00028F079E37D932A95E9F710C07D932A956E
:1010C00089F6069497956795379517951794E118C3
:1010D000F10A430B560BC90BD00998F023957E916A
:1010E00073957A3308F070E37C932013B8F77E9100
:1010F00070617D9330F0839571E37D9370E32A9561
:10110000E1F71124EF90FF900F911F91CF91DF91A4
:10111000992787FD90950895FC01059061507040D6
:101120000110D8F7809590958E0F9F1F0895FC01B0
:101130006150704001900110D8F7809590958E0F06
:101140009F1F08950F931F93CF93DF93182F092F9D
:10115000EB018B8181FD09C01FEF0FEF812F902FD5
:10116000DF91CF911F910F91089582FF14C02E81BE
:101170003F818C819D81281739073CF4E881F981F2
:10118000CF0101969983888310838E819F81019678
:101190009F838E83E3CFE885F985812F0995892B7D
:1011A000A1F3DACFAEE0B0E0E8EDF8E00C94900601
:1011B0000D891E8986E08C831A8309838FEF9FE750
:1011C0009E838D83AE01475E5F4F6F89788DCE0120
:1011D00001960E9420022F813885020F131FF8010B
:1011E00010822E96E4E00C94AC06FA01AA2728306F
:1011F00051F1203181F1E8946F936E7F6E5F7F4FE4
:101200008F4F9F4FAF4FB1E03ED0B4E03CD0670F5F
:10121000781F891F9A1FA11D680F791F8A1F911DB2
:10122000A11D6A0F711D811D911DA11D20D009F402
:1012300068943F912AE0269F11243019305D319344
:10124000DEF6CF010895462F4770405D4193B3E02D
:101250000FD0C9F7F6CF462F4F70405D4A3318F0D4
:10126000495D31FD4052419302D0A9F7EACFB4E085
:10127000A6959795879577956795BA95C9F700973D
:101280006105710508959B01AC010A2E06945795DE
:10129000479537952795BA95C9F7620F731F841F35
:0A12A000951FA01D0895F894FFCFDC
:1012AA004368616E6E616C20303A20004368616E5B
:1012BA006E616C20313A20004368616E6E616C2069
:0A12CA00323A200025332E31660071
:00000001FF
