:100000000C94B5000C94C7000C94C7000C94C70066
:100010000C94C7000C94C7000C94C7000C94C70044
:100020000C94C7000C94C7000C94C7000C94C70034
:100030000C94C7000C94C7000C94C7000C94C70024
:100040000C94C7000C94C7000C946E010C940C0126
:100050000C94C7000C94C7000C94C7000C94C70004
:100060000C94C7000C94C7006E616E00696E660048
:1000700000407A10F35A00A0724E18090010A5D45F
:10008000E80000E87648170000E40B54020000CABC
:100090009A3B000000E1F505000080969800000002
:1000A00040420F000000A086010000001027000061
:1000B0000000E803000000006400000000000A00E7
:1000C000000000000100000000002C76D888DC67EA
:1000D0004F0823DFC1DFAE59E1B1B796E5E3E45342
:1000E000C63AE651997696E8E6C28426EB898C9B5F
:1000F00062ED407C6FFCEFBC9C9F40F2BAA56FA5FF
:10010000F490055A2AF75C936B6CF9676DC11BFC80
:10011000E0E40D47FEF520E6B500D0ED902E03009B
:10012000943577050080841E080000204E0A0000E8
:1001300000C80C333333330F986E12831141EF8DA7
:100140002114893BE65516CFFEE6DB18D1844B38E7
:100150001BF77C1D901DA4BBE424203284725E2218
:100160008100C9F124ECA1E53D2711241FBECFEF8A
:10017000D8E0DEBFCDBF21E0A0E0B1E001C01D921C
:10018000A43CB207E1F70E945D050C94C9080C94E9
:1001900000009091420180914301891710F0891B62
:1001A00008958058FCCF909100018091010189173A
:1001B00010F0891B0895805CFCCFE0ECF0E08081BA
:1001C0008D7F80831092C50087E68093C400E1ECA8
:1001D000F0E088E1808386E08093C20080818068BF
:1001E00080838FB780688FBF0895E091010191E00F
:1001F0009E0FEF3309F490E020910001291759F088
:10020000F0E0EE5FFE4F8083909301018091C1008A
:1002100080628093C10008958F938FB78F939F93CF
:10022000EF93FF9390910001E92FF0E0EE5FFE4F16
:1002300080818093C60081E0890F9F3309F480E0BC
:100240008093000190910101981305C08091C10035
:100250008F7D8093C100FF91EF919F918F918FBF10
:100260008F911895CF93DF93EC018991811103C091
:10027000DF91CF9108950E94F500F7CFCF93DF93E0
:10028000EC018991811108C08DE00E94F5008AE09F
:10029000DF91CF910C94F5000E94F500F2CF809190
:1002A000430190914201891710F0891B08958058ED
:1002B000FCCF9091420180914301891769F0E92FA9
:1002C000F0E0EC5BFE4F808121E0290F9F3709F4BD
:1002D00020E02093420108958FEF08952F932FB7C8
:1002E0002F938F939F93EF93FF939091C600E0918C
:1002F000430181E08E0FEF3709F480E02091420145
:10030000281731F0F0E0EC5BFE4F908380934301BF
:10031000FF91EF919F918F912F912FBF2F91189562
:1003200080914301809342010895219A82EA80934B
:100330008000E1E8F0E088E1808380818260808352
:1003400088EE93E0909389008093880080E49CE994
:1003500090938700809386000895CF93DF9300D019
:1003600000D0CDB7DEB79C0150E040E029833A834E
:100370004B835C83CA01B9010E94520628EA36EC1D
:1003800041EB51E469837A838B839C8369817A8111
:100390008B819C810E94E00620E030E04AE754E433
:1003A00069837A838B839C8369817A818B819C8129
:1003B0000E94B70569837A838B839C8369817A81E4
:1003C0008B819C810E942306462F572F50938900D2
:1003D000409388000F900F900F900F90DF91CF9176
:1003E0000895A3E1B0E0E7EFF1E00C947F057C0114
:1003F0001B015A01DC0117961C921E921697139648
:100400008C9181FF50C3FE0131964F01D7011396A5
:100410009C91F10193FD859193FF81911F018823A8
:1004200009F4F4C2853239F493FD859193FF8191EB
:100430001F01853239F4B70190E00E943B08650145
:100440005601E4CF10E0712C612CBFE1B61538F0F5
:100450008B3211F190F4803209F1833229F167FC7B
:100460003CC020ED280F2A3050F566FE20C0EAE09F
:100470001E9F200D1124122F06C08D3291F0803363
:1004800071F7689460F8F10193FD859193FF819174
:100490001F018111DACF21C0689461F8689462F875
:1004A000F2CF689463F8EFCF689464F8ECCFFAE089
:1004B0007F9E200D1124722E689465F8E4CF8E3251
:1004C00029F466FCA3C2689466F8DDCF8C3619F473
:1004D000689467F8D8CF8836B1F29BEB980F9330C9
:1004E00008F065C0689464F8805E66FE16E0262D0C
:1004F0002F73622E853609F062C0689466F867FE35
:1005000068C0812F1C3308F08BE344244394480EC9
:1005100027E0D5014D915D916D917D916D014C87E5
:100520005D876E877F87042DA4016C857D858E8510
:100530009F850E944D075C01B981BC87B0FF03C055
:100540000DE2B3FF0AC00BE261FC07C062FA882724
:1005500080F9082F0295000F007EEC85EC705E2E6E
:1005600009F454C00111A2C2F3E0512CF715A0F414
:1005700083E0572C581A63FC08C0B70180E290E072
:100580000E943B085A945110F8CF002329F0B7017C
:10059000802F90E00E943B08FC8508E610E0F3FD08
:1005A00002C00CE610E0262D2071622E21C09BE9CE
:1005B000980F933008F03AC1E89464F896CF8636E5
:1005C00019F4689467F89BCF112309F498CF115060
:1005D00096CF212F183010F027E017E0412C99CF4B
:1005E00061108052B70190E00E943B080F5F1F4FDF
:1005F000F80184918111F4CF552009F421CFB7017E
:1006000080E290E00E943B085A94F6CF67FE7DC0DE
:10061000842D8A0DFC85F4FF04C09A81913309F47E
:10062000815044244394181634F4482E28E02817A7
:1006300010F488E0482E85E090E067FE06C0C50112
:10064000B7FE02C080E090E00196011101961123EF
:1006500031F0212F30E02F5F3F4F820F931F78162C
:10066000190619F014F0572C581A862D897011F4B8
:10067000511070C0002329F0B701802F90E00E9434
:100680003B0863FC02C051106CC067FE85C0350199
:10069000B7FE02C0712C612CC50186199709A4010F
:1006A000480F591F598B488BB501641971097B8B11
:1006B0006A8B012F10E0119501951109A614B7045A
:1006C0000CF456C0AA89BB89A615B7050CF050C01A
:1006D000E889F9898181F1E06F1A71086016710665
:1006E0000CF448C0B70190E00E943B082FEF62165F
:1006F000720629F4B7018EE290E00E943B088889D7
:1007000099890196998B888BD9CF66FC94CFE12F7C
:10071000F0E0EA15FB053CF03CEFA3163FEFB30613
:1007200014F0689467F83296E80DF91D01C0115075
:10073000112319F082918033D1F367FE7CCF4424DA
:100740004394410E1A151B0419F014F01A1973CFB3
:1007500010E071CFB70180E290E00E943B085A940C
:1007600087CFB70180E390E00E943B085A948BCF7B
:1007700080E3B1CFA614B70441F49A81963350F4C4
:10078000953319F43C8534FF05C0B70190E00E9411
:100790003B0832CF81E3F9CF8A81813319F04C8550
:1007A0004F7E4C87B70190E00E943B08112399F0DF
:1007B000B7018EE290E00E943B081E5F02E0802FAE
:1007C0000F5FF401E80FF11D8081B70190E00E94F6
:1007D0003B081013F4CF85E664FC85E490E0B70194
:1007E0000E943B08B7FC06C0A114B104C1F45C85AB
:1007F00054FF15C0B194A194B1088DE2B70190E007
:100800000E943B0880E37AE0A716B10454F4B701D4
:1008100090E00E943B08B701C501C096B8CF8BE2BB
:10082000EDCF8F5F6AE0A61AB108EDCF8336B1F045
:10083000833741F1833509F04DC0D501AD90BD90AE
:100840006D01612F70E066FC02C06FEF7FEFC501A4
:100850000E9425088C01689467F80CC0650182E04D
:10086000C80ED11CD5018C91898301E010E05401A0
:10087000E89467F863FC04C07016110609F088F468
:10088000572C24C0F501A190B1906F01612F70E049
:1008900066FC02C06FEF7FEFC5010E9430088C013B
:1008A000E7CFB70180E290E00E943B087A94E4CF62
:1008B000F50167FC859167FE81915F01B70190E0CA
:1008C0000E943B0851105A9401501109011511055D
:1008D00079F792CE843619F0893609F070C067FE38
:1008E00065C0F50161917191819191916F01B62D72
:1008F000BF766B2E97FF09C0909580957095619596
:100900007F4F8F4F9F4F689467F82AE030E0A40133
:100910000E946B08A82EA818BA2C062D66FE0AC0E5
:100920000E7FA11638F464FE04C062FC02C0062DDE
:100930000E7EB12E04FF8FC0FE01EA0DF11D8081F5
:10094000803309F081C0097E502F5870552E03FD69
:1009500091C000FF8BC01A2DB71418F47A0C172D14
:100960001B1904FF8DC0B70180E390E00E943B0893
:1009700002FF07C088E701FD88E590E0B7010E940B
:100980003B08A11608F488C0AA940A2D10E00F5F56
:100990001F4F080D191DD8018E918D01B70190E0F0
:1009A0000E943B0808151905B1F726CED5016D91B7
:1009B0007D916D01072E000C880B990B98CF062DA9
:1009C0008537E1F40F7E2AE030E007FF35C0D5011E
:1009D0004D915D916D917D916D014C875D876E8725
:1009E0007F87A4016C857D858E859F850E946B081D
:1009F000A82EA818602EE89467F88ECF097F80375C
:100A000091F058F4883589F08F36A1F0F70186818E
:100A100097816396E2E10C949B058837B9F704FD52
:100A2000046020E1D1CF0061FACF64FC066020E1D0
:100A300032E0CBCF28E0C8CFF501819191916F01D1
:100A4000AC0170E060E0C9CF02FD02C0B3947CCF7E
:100A5000B394B39479CF802F867809F475CFF6CF0D
:100A6000B70180E290E00E943B08B394B714C0F352
:100A7000512C77CF572C5B18B71408F472CFF8CFEE
:100A8000802F867809F47DCF8BE201FF80E207FD9D
:100A90008DE2B70190E073CFB70180E390E00E9450
:100AA0003B0811506ECF8FEF9FEFB3CF24E0512C56
:100AB000271508F06CCD84E05CCD80E88093610060
:100AC000109261000E94950184EB90E00E94AD01BC
:100AD0002FEF83ED90E3215080409040E1F700C07C
:100AE000000090E080E00E94AD012FEF83ED90E3E5
:100AF000215080409040E1F700C00000E5CF2F92E8
:100B00003F924F925F926F927F928F929F92AF929D
:100B1000BF92CF92DF92EF92FF920F931F93CF93EA
:100B2000DF93CDB7DEB7CA1BDB0B0FB6F894DEBF81
:100B30000FBECDBF09942A88398848885F846E84A7
:100B40007D848C849B84AA84B984C884DF80EE80F1
:100B5000FD800C811B81AA81B981CE0FD11D0FB6FA
:100B6000F894DEBF0FBECDBFED0108955058BB27EE
:100B7000AA270E94CE050C94A6060E94980638F07B
:100B80000E949F0620F039F49F3F19F426F40C943C
:100B900095060EF4E095E7FB0C948F06E92F0E9472
:100BA000B70658F3BA17620773078407950720F052
:100BB00079F4A6F50C94D9060EF4E0950B2EBA2F15
:100BC000A02D0B01B90190010C01CA01A001112453
:100BD000FF27591B99F0593F50F4503E68F11A16FF
:100BE000F040A22F232F342F4427585FF3CF469590
:100BF00037952795A795F0405395C9F77EF41F16B2
:100C0000BA0B620B730B840BBAF09150A1F0FF0F7B
:100C1000BB1F661F771F881FC2F70EC0BA0F621F67
:100C2000731F841F48F4879577956795B795F79557
:100C30009E3F08F0B0CF9395880F08F09927EE0FEC
:100C40009795879508950E94BF0688F09F5798F062
:100C5000B92F9927B751B0F0E1F0660F771F881FC1
:100C6000991F1AF0BA95C9F714C0B13091F00E94DB
:100C7000D906B1E008950C94D906672F782F8827FC
:100C8000B85F39F0B93FCCF3869577956795B39502
:100C9000D9F73EF490958095709561957F4F8F4F71
:100CA0009F4F0895E89409C097FB3EF49095809576
:100CB000709561957F4F8F4F9F4F9923A9F0F92F22
:100CC00096E9BB279395F695879577956795B795A0
:100CD000F111F8CFFAF4BB0F11F460FF1BC06F5F86
:100CE0007F4F8F4F9F4F16C0882311F096E911C098
:100CF000772321F09EE8872F762F05C0662371F0B9
:100D000096E8862F70E060E02AF09A95660F771FCC
:100D1000881FDAF7880F9695879597F9089597F9C0
:100D20009F6780E870E060E008959FEF80EC089591
:100D300000240A94161617061806090608950024BA
:100D40000A9412161306140605060895092E039434
:100D5000000C11F4882352F0BB0F40F4BF2B11F4A8
:100D600060FF04C06F5F7F4F8F4F9F4F089557FD07
:100D70009058440F551F59F05F3F71F04795880F09
:100D800097FB991F61F09F3F79F0879508951216A0
:100D900013061406551FF2CF4695F1DF08C016164C
:100DA00017061806991FF1CF8695710561050894FD
:100DB0000895E894BB2766277727CB0197F9089514
:100DC0000E94F3060C94A6060E94980638F00E9432
:100DD0009F0620F0952311F00C948F060C94950635
:100DE00011240C94DA060E94B70670F3959FC1F3A4
:100DF000950F50E0551F629FF001729FBB27F00DC9
:100E0000B11D639FAA27F00DB11DAA1F649F66271D
:100E1000B00DA11D661F829F2227B00DA11D621F6C
:100E2000739FB00DA11D621F839FA00D611D221F26
:100E3000749F3327A00D611D231F849F600D211D0A
:100E4000822F762F6A2F11249F5750409AF0F1F08D
:100E500088234AF0EE0FFF1FBB1F661F771F881FF6
:100E600091505040A9F79E3F510580F00C948F0699
:100E70000C94DA065F3FE4F3983ED4F386957795B9
:100E80006795B795F795E7959F5FC1F7FE2B880F9C
:100E9000911D9695879597F90895283008F027E0D9
:100EA0003327DA01990F311D87FD916000966105A6
:100EB000710539F432602E5F3D9330E32A95E1F7F6
:100EC00008959F3F30F080387105610509F03C5F5F
:100ED0003C5F3D93913008F08068911DDF93CF9384
:100EE0001F930F93FF92EF92192F987F9695E92FFA
:100EF00096959695E90FFF27E653FF4F99273327DD
:100F0000EE24FF24A701E70105900894079428F434
:100F1000360FE71EF81E491F511D660F771F881FE9
:100F2000991F0694A1F70590079428F4E70EF81E80
:100F3000491F561FC11D770F881F991F661F0694F2
:100F4000A1F70590079428F4F80E491F561FC71FF4
:100F5000D11D880F991F661F771F0694A1F7059072
:100F6000079420F4490F561FC71FD81F990F661FFB
:100F7000771F881F0694A9F784911095177041F088
:100F8000D695C79557954795F794E7941A95C1F765
:100F9000E0E7F0E068941590159135916591959191
:100FA00005907FE27395E118F10A430B560BC90BCC
:100FB000D009C0F7E10CF11E431F561FC91FD01DF9
:100FC0007EF4703311F48A95E6CFE894015030F046
:100FD000080F0AF40027021708F4202F2395022F88
:100FE0007A3328F079E37D932A95E9F710C07D9351
:100FF0002A9589F6069497956795379517951794CE
:10100000E118F10A430B560BC90BD00998F0239550
:101010007E9173957A3308F070E37C932013B8F7D0
:101020007E9170617D9330F0839571E37D9370E3E1
:101030002A95E1F71124EF90FF900F911F91CF9126
:10104000DF91992787FD90950895FC0105906150E7
:1010500070400110D8F7809590958E0F9F1F0895CE
:10106000FC016150704001900110D8F78095909577
:101070008E0F9F1F08950F931F93CF93DF93182F09
:10108000092FEB018B8181FD09C01FEF0FEF812F2D
:10109000902FDF91CF911F910F91089582FF14C07F
:1010A0002E813F818C819D81281739073CF4E8818E
:1010B000F981CF0101969983888310838E819F8166
:1010C00001969F838E83E3CFE885F985812F09956B
:1010D000892BA1F3DACFFA01AA27283051F1203168
:1010E00081F1E8946F936E7F6E5F7F4F8F4F9F4FBC
:1010F000AF4FB1E03ED0B4E03CD0670F781F891FFE
:101100009A1FA11D680F791F8A1F911DA11D6A0FCB
:10111000711D811D911DA11D20D009F468943F917E
:101120002AE0269F11243019305D3193DEF6CF017D
:101130000895462F4770405D4193B3E00FD0C9F743
:10114000F6CF462F4F70405D4A3318F0495D31FDB0
:101150004052419302D0A9F7EACFB4E0A695979503
:10116000879577956795BA95C9F7009761057105D9
:1011700008959B01AC010A2E069457954795379523
:101180002795BA95C9F7620F731F841F951FA01D7D
:061190000895F894FFCF62
:00000001FF
