:100000000C94B5000C94D2000C94D2000C94D20045
:100010000C94D2000C94D2000C94D2000C94D20018
:100020000C94D2000C94D2000C9404010C94D200D5
:100030000C94D2000C94E4000C94D2000C94D200E6
:100040000C94D2000C94D2000C94D2000C94D200E8
:100050000C94D2000C94D2000C94D2000C94D200D8
:100060000C94D2000C94D2006E616E00696E660032
:1000700000407A10F35A00A0724E18090010A5D45F
:10008000E80000E87648170000E40B54020000CABC
:100090009A3B000000E1F505000080969800000002
:1000A00040420F000000A086010000001027000061
:1000B0000000E803000000006400000000000A00E7
:1000C000000000000100000000002C76D888DC67EA
:1000D0004F0823DFC1DFAE59E1B1B796E5E3E45342
:1000E000C63AE651997696E8E6C28426EB898C9B5F
:1000F00062ED407C6FFCEFBC9C9F40F2BAA56FA5FF
:10010000F490055A2AF75C936B6CF9676DC11BFC80
:10011000E0E40D47FEF520E6B500D0ED902E03009B
:10012000943577050080841E080000204E0A0000E8
:1001300000C80C333333330F986E12831141EF8DA7
:100140002114893BE65516CFFEE6DB18D1844B38E7
:100150001BF77C1D901DA4BBE424203284725E2218
:100160008100C9F124ECA1E53D2711241FBECFEF8A
:10017000D8E0DEBFCDBF11E0A0E0B1E0E2E3F1E105
:1001800002C005900D92A831B107D9F721E0A8E18E
:10019000B1E001C01D92AC33B207E1F70E94130633
:1001A0000C9497080C940000109285001092840023
:1001B0001092800081E280936F0082E4809381003E
:1001C0008FB780688FBF08958F938FB78F939F935A
:1001D000AF93BF9380911C0190911D01A0911E01CE
:1001E000B0911F010197AF4FBF4F80931C019093B7
:1001F0001D01A0931E01B0931F01BF91AF919F916C
:100200008F918FBF8F9118951F921FB61F92112447
:100210000F931F932F933F934F935F936F937F930E
:100220008F939F93AF93BF9381E090E0A0E0B0E005
:100230008093300190933101A0933201B093330148
:100240008091860090918700B0E0A0E08093180133
:1002500090931901A0931A01B0931B018091810022
:1002600090E489278093810080911C0190911D0169
:10027000A0911E01B0911F01009118011091190168
:1002800020911A0130911B014091200150912101D0
:100290006091220170912301800F911FA21FB31F53
:1002A000841B950BA60BB70B80932401909325011B
:1002B000A0932601B09327018091810086FD44C060
:1002C0008091340190913501A0913601B0913701B0
:1002D00040912401509125016091260170912701E0
:1002E000840F951FA61FB71F809338019093390183
:1002F000A0933A01B0933B018091180190911901AC
:10030000A0911A01B0911B018093200190932101CB
:10031000A0932201B093230110921C0110921D01A1
:1003200010921E0110921F01BF91AF919F918F916A
:100330007F916F915F914F913F912F911F910F91FD
:100340001F901FBE1F901895809124019091250148
:10035000A0912601B091270180933401909335013B
:10036000A0933601B0933701C7CFE0ECF0E0808175
:100370008D7F80831092C50087E68093C40088E15A
:100380008093C10086E08093C20008959091C000E0
:1003900095FFFCCF8093C6000895CF92DF92EF9235
:1003A000FF920F931F93CF93DF93CDB7DEB7649780
:1003B0000FB6F894DEBF0FBECDBFFE017F966191F0
:1003C0007191AF018E010F5F1F4FC8010E941C0881
:1003D0006801F12CE12CF80101900020E9F7319738
:1003E000E01BF10BEE16FF0678F064960FB6F8945A
:1003F000DEBF0FBECDBFDF91CF911F910F91FF9058
:10040000EF90DF90CF900895F60181916F010E94E7
:10041000C601FFEFEF1AFF0ADECFCF92DF92EF9215
:10042000FF920F931F93CF93DF93CDB7DEB76497FF
:100430000FB6F894DEBF0FBECDBFFE017F9661916F
:100440007191AF018E010F5F1F4FC8010E941C0800
:100450006801F12CE12CF80101900020E9F73197B7
:10046000E01BF10BEE16FF06B8F084E191E09F93DC
:100470008F930E94CD010F900F9064960FB6F89461
:10048000DEBF0FBECDBFDF91CF911F910F91FF90C7
:10049000EF90DF90CF900895F60181916F010E9457
:1004A000C601FFEFEF1AFF0AD6CF9C0184B18C6220
:1004B00084B924982115310521F02130310521F02E
:1004C000089585E58CBD08958FB780688FBF85ED51
:1004D000F9CF8EBD0DB407FEFDCF08952A988EBDCD
:1004E0000DB407FEFDCF2A9A08959B012A98FC01BE
:1004F00090E080E08217930714F02A9A08954191C2
:100500004EBD0DB407FEFDCF0196F4CF8EBD0DB4E8
:1005100007FEFDCF8EB508952A980CB405FC0CC0DB
:100520009EBD00000DB407FEFDCF8EBD00000DB4D2
:1005300007FEFDCF2A9A08958EBD00000DB407FE78
:10054000FDCF9EBD00000DB407FEFDCFF3CFA3E1AC
:10055000B0E0EDEAF2E00C94B8067C011B015A0110
:10056000DC0117961C921E92169713968C9181FFB0
:1005700050C3FE0131964F01D70113969C91F101B2
:1005800093FD859193FF81911F01882309F4F4C2A3
:10059000853239F493FD859193FF81911F01853256
:1005A00039F4B70190E00E94EC0765015601E4CFF1
:1005B00010E0712C612CBFE1B61538F08B3211F1CF
:1005C00090F4803209F1833229F167FC3CC020EDC0
:1005D000280F2A3050F566FE20C0EAE01E9F200D4D
:1005E0001124122F06C08D3291F0803371F7689478
:1005F00060F8F10193FD859193FF81911F018111B5
:10060000DACF21C0689461F8689462F8F2CF6894F8
:1006100063F8EFCF689464F8ECCFFAE07F9E200D8A
:100620001124722E689465F8E4CF8E3229F466FCAA
:10063000A3C2689466F8DDCF8C3619F4689467F825
:10064000D8CF8836B1F29BEB980F933008F065C095
:10065000689464F8805E66FE16E0262D2F73622E85
:10066000853609F062C0689466F867FE68C0812F1D
:100670001C3308F08BE344244394480E27E0D50153
:100680004D915D916D917D916D014C875D876E8778
:100690007F87042DA4016C857D858E859F850E94B2
:1006A000FE065C01B981BC87B0FF03C00DE2B3FF59
:1006B0000AC00BE261FC07C062FA882780F9082FA4
:1006C0000295000F007EEC85EC705E2E09F454C09C
:1006D0000111A2C2F3E0512CF715A0F483E0572CCE
:1006E000581A63FC08C0B70180E290E00E94EC0752
:1006F0005A945110F8CF002329F0B701802F90E0D1
:100700000E94EC07FC8508E610E0F3FD02C00CE651
:1007100010E0262D2071622E21C09BE9980F9330A6
:1007200008F03AC1E89464F896CF863619F46894D4
:1007300067F89BCF112309F498CF115096CF212F42
:10074000183010F027E017E0412C99CF611080524B
:10075000B70190E00E94EC070F5F1F4FF8018491F2
:100760008111F4CF552009F421CFB70180E290E048
:100770000E94EC075A94F6CF67FE7DC0842D8A0D47
:10078000FC85F4FF04C09A81913309F4815044241C
:100790004394181634F4482E28E0281710F488E003
:1007A000482E85E090E067FE06C0C501B7FE02C096
:1007B00080E090E0019601110196112331F0212F84
:1007C00030E02F5F3F4F820F931F7816190619F004
:1007D00014F0572C581A862D897011F4511070C0DE
:1007E000002329F0B701802F90E00E94EC0763FC02
:1007F00002C051106CC067FE85C03501B7FE02C053
:10080000712C612CC50186199709A401480F591F45
:10081000598B488BB501641971097B8B6A8B012F49
:1008200010E0119501951109A614B7040CF456C0F7
:10083000AA89BB89A615B7050CF050C0E889F989CB
:100840008181F1E06F1A7108601671060CF448C0DE
:10085000B70190E00E94EC072FEF6216720629F4B0
:10086000B7018EE290E00E94EC0788899989019691
:10087000998B888BD9CF66FC94CFE12FF0E0EA15F5
:10088000FB053CF03CEFA3163FEFB30614F0689471
:1008900067F83296E80DF91D01C01150112319F0C7
:1008A00082918033D1F367FE7CCF44244394410E80
:1008B0001A151B0419F014F01A1973CF10E071CF38
:1008C000B70180E290E00E94EC075A9487CFB7010D
:1008D00080E390E00E94EC075A948BCF80E3B1CF85
:1008E000A614B70441F49A81963350F4953319F461
:1008F0003C8534FF05C0B70190E00E94EC0732CF81
:1009000081E3F9CF8A81813319F04C854F7E4C8782
:10091000B70190E00E94EC07112399F0B7018EE235
:1009200090E00E94EC071E5F02E0802F0F5FF40151
:10093000E80FF11D8081B70190E00E94EC071013D1
:10094000F4CF85E664FC85E490E0B7010E94EC07F3
:10095000B7FC06C0A114B104C1F45C8554FF15C0F6
:10096000B194A194B1088DE2B70190E00E94EC0728
:1009700080E37AE0A716B10454F4B70190E00E9436
:10098000EC07B701C501C096B8CF8BE2EDCF8F5F02
:100990006AE0A61AB108EDCF8336B1F0833741F192
:1009A000833509F04DC0D501AD90BD906D01612F2B
:1009B00070E066FC02C06FEF7FEFC5010E94D607B2
:1009C0008C01689467F80CC0650182E0C80ED11CE8
:1009D000D5018C91898301E010E05401E89467F817
:1009E00063FC04C07016110609F088F4572C24C06B
:1009F000F501A190B1906F01612F70E066FC02C01B
:100A00006FEF7FEFC5010E94E1078C01E7CFB701CF
:100A100080E290E00E94EC077A94E4CFF50167FC55
:100A2000859167FE81915F01B70190E00E94EC071C
:100A300051105A94015011090115110579F792CE00
:100A4000843619F0893609F070C067FE65C0F5017B
:100A500061917191819191916F01B62DBF766B2E4D
:100A600097FF09C090958095709561957F4F8F4F46
:100A70009F4F689467F82AE030E0A4010E9439088B
:100A8000A82EA818BA2C062D66FE0AC00E7FA11645
:100A900038F464FE04C062FC02C0062D0E7EB12E46
:100AA00004FF8FC0FE01EA0DF11D8081803309F043
:100AB00081C0097E502F5870552E03FD91C000FF54
:100AC0008BC01A2DB71418F47A0C172D1B1904FFBC
:100AD0008DC0B70180E390E00E94EC0702FF07C0E1
:100AE00088E701FD88E590E0B7010E94EC07A116B8
:100AF00008F488C0AA940A2D10E00F5F1F4F080D5C
:100B0000191DD8018E918D01B70190E00E94EC076C
:100B100008151905B1F726CED5016D917D916D01AE
:100B2000072E000C880B990B98CF062D8537E1F422
:100B30000F7E2AE030E007FF35C0D5014D915D9171
:100B40006D917D916D014C875D876E877F87A401D4
:100B50006C857D858E859F850E943908A82EA818F2
:100B6000602EE89467F88ECF097F803791F058F4B3
:100B7000883589F08F36A1F0F701868197816396D9
:100B8000E2E10C94D4068837B9F704FD046020E153
:100B9000D1CF0061FACF64FC066020E132E0CBCF18
:100BA00028E0C8CFF501819191916F01AC0170E00F
:100BB00060E0C9CF02FD02C0B3947CCFB394B3947C
:100BC00079CF802F867809F475CFF6CFB70180E210
:100BD00090E00E94EC07B394B714C0F3512C77CF88
:100BE000572C5B18B71408F472CFF8CF802F867893
:100BF00009F47DCF8BE201FF80E207FD8DE2B701B2
:100C000090E073CFB70180E390E00E94EC071150B1
:100C10006ECF8FEF9FEFB3CF24E0512C271508F054
:100C20006CCD84E05CCD00D000D0CDB7DEB780E8DD
:100C300080936100109261000E94B5010E94D4006F
:100C40002FEF89E698E1215080409040E1F700C005
:100C500000000AE011E08091300190913101A091F3
:100C60003201B09133010197A105B10509F049C0E6
:100C7000209138013091390140913A0150913B0166
:100C800060E874E88EE190E00E948B0620932801D2
:100C90003093290140932A0150932B015F934F9386
:100CA0003F932F9380E091E09F938F930E940D02DA
:100CB0002091340130913501409136015091370136
:100CC000C0903801D0903901E0903A01F0903B019A
:100CD000A4E6B0E00E94AD0669837A838B839C838F
:100CE000A70196010E948B065F934F933F932F932A
:100CF0001F930F930E940D020FB6F894DEBF0FBE34
:100D0000CDBF9FEF21EE84E0915020408040E1F77D
:100D100000C00000A0CFA1E21A2EAA1BBB1BFD0140
:100D20000DC0AA1FBB1FEE1FFF1FA217B307E407CA
:100D3000F50720F0A21BB30BE40BF50B661F771F22
:100D4000881F991F1A9469F7609570958095909502
:100D50009B01AC01BD01CF0108950E94EF06A59F44
:100D6000900DB49F900DA49F800D911D11240895A6
:100D70002F923F924F925F926F927F928F929F92AB
:100D8000AF92BF92CF92DF92EF92FF920F931F9399
:100D9000CF93DF93CDB7DEB7CA1BDB0B0FB6F8944A
:100DA000DEBF0FBECDBF09942A88398848885F848A
:100DB0006E847D848C849B84AA84B984C884DF80FB
:100DC000EE80FD800C811B81AA81B981CE0FD11DDF
:100DD0000FB6F894DEBF0FBECDBFED010895A29F00
:100DE000B001B39FC001A39F700D811D1124911DFF
:100DF000B29F700D811D1124911D0895283008F0B7
:100E000027E03327DA01990F311D87FD91600096A5
:100E10006105710539F432602E5F3D9330E32A9508
:100E2000E1F708959F3F30F080387105610509F0C2
:100E30003C5F3C5F3D93913008F08068911DDF93EB
:100E4000CF931F930F93FF92EF92192F987F969550
:100E5000E92F96959695E90FFF27E653FF4F9927BF
:100E60003327EE24FF24A701E70105900894079497
:100E700028F4360FE71EF81E491F511D660F771F15
:100E8000881F991F0694A1F70590079428F4E70E90
:100E9000F81E491F561FC11D770F881F991F661F17
:100EA0000694A1F70590079428F4F80E491F561FE1
:100EB000C71FD11D880F991F661F771F0694A1F7C2
:100EC0000590079420F4490F561FC71FD81F990F8C
:100ED000661F771F881F0694A9F7849110951770D5
:100EE00041F0D695C79557954795F794E7941A958D
:100EF000C1F7E0E7F0E068941590159135916591A0
:100F0000959105907FE27395E118F10A430B560B1A
:100F1000C90BD009C0F7E10CF11E431F561FC91FB2
:100F2000D01D7EF4703311F48A95E6CFE894015019
:100F300030F0080F0AF40027021708F4202F239539
:100F4000022F7A3328F079E37D932A95E9F710C0D0
:100F50007D932A9589F60694979567953795179509
:100F60001794E118F10A430B560BC90BD00998F0FE
:100F700023957E9173957A3308F070E37C93201368
:100F8000B8F77E9170617D9330F0839571E37D9326
:100F900070E32A95E1F71124EF90FF900F911F91D4
:100FA000CF91DF91992787FD90950895FC010590D9
:100FB000615070400110D8F7809590958E0F9F1F5B
:100FC0000895FC016150704001900110D8F78095A0
:100FD00090958E0F9F1F08950F931F93CF93DF93CC
:100FE000182F092FEB018B8181FD09C01FEF0FEF37
:100FF000812F902FDF91CF911F910F91089582FF44
:1010000014C02E813F818C819D81281739073CF4C3
:10101000E881F981CF0101969983888310838E81BD
:101020009F8101969F838E83E3CFE885F985812F89
:101030000995892BA1F3DACFAEE0B0E0E2E2F8E067
:101040000C94C6068C0186E08C831A8309838FEF8B
:101050009FE79E838D83CE0101960E94A7022F8178
:101060003885020F131FF80110822E96E4E00C94CD
:10107000E206FA01AA27283051F1203181F1E894E3
:101080006F936E7F6E5F7F4F8F4F9F4FAF4FB1E07B
:101090003ED0B4E03CD0670F781F891F9A1FA11D76
:1010A000680F791F8A1F911DA11D6A0F711D811D77
:1010B000911DA11D20D009F468943F912AE0269F3C
:1010C00011243019305D3193DEF6CF010895462F9B
:1010D0004770405D4193B3E00FD0C9F7F6CF462F7C
:1010E0004F70405D4A3318F0495D31FD40524193E5
:1010F00002D0A9F7EACFB4E0A695979587957795A2
:101100006795BA95C9F700976105710508959B0128
:10111000AC010A2E06945795479537952795BA95B1
:10112000C9F7620F731F841F951FA01D0895F894BF
:02113000FFCFEF
:10113200467265712025346C6400447574792025EB
:08114200346C64000D0A00008A
:00000001FF
