:100000000C94B5000C94D2000C94D2000C94D20045
:100010000C94D2000C94D2000C94D2000C94D20018
:100020000C94D2000C94D2000C94D2000C94D20008
:100030000C94D2000C94D2000C94D2000C94D200F8
:100040000C94D2000C94D2000C94DB020C940E029F
:100050000C94D2000C94D2000C94D2000C94D200D8
:100060000C94D2000C94D2006E616E00696E660032
:1000700000407A10F35A00A0724E18090010A5D45F
:10008000E80000E87648170000E40B54020000CABC
:100090009A3B000000E1F505000080969800000002
:1000A00040420F000000A086010000001027000061
:1000B0000000E803000000006400000000000A00E7
:1000C000000000000100000000002C76D888DC67EA
:1000D0004F0823DFC1DFAE59E1B1B796E5E3E45342
:1000E000C63AE651997696E8E6C28426EB898C9B5F
:1000F00062ED407C6FFCEFBC9C9F40F2BAA56FA5FF
:10010000F490055A2AF75C936B6CF9676DC11BFC80
:10011000E0E40D47FEF520E6B500D0ED902E03009B
:10012000943577050080841E080000204E0A0000E8
:1001300000C80C333333330F986E12831141EF8DA7
:100140002114893BE65516CFFEE6DB18D1844B38E7
:100150001BF77C1D901DA4BBE424203284725E2218
:100160008100C9F124ECA1E53D2711241FBECFEF8A
:10017000D8E0DEBFCDBF11E0A0E0B1E0E0E9F0E102
:1001800002C005900D92A430B107D9F721E0A4E098
:10019000B1E001C01D92A83CB207E1F70E946E06D3
:1001A0000C9446080C940000CF93C82F682F80E869
:1001B0000E94970185E38A95F1F700006C2F80E09B
:1001C000CF910C9497010E94B10160E08CE10E94F4
:1001D00097018FE99FE00197F1F700C000008EE3DF
:1001E0000E94D40080E40E94D40088EB0E94D400D6
:1001F00080EC0E94D4008FE30C94D400CF93C62FE0
:10020000009721F0019771F0CF91089588EA0E943C
:10021000970185E38A95F1F700006C2F88E2CF9172
:100220000C94970184EA0E94970185E38A95F1F77F
:1002300000006C2F84E2F3CF81E08093B90086E266
:100240008093B80084E08093BC00089584EA809392
:10025000BC008091BC0087FFFCCF8091B900887FF3
:10026000883049F08091B900887F803121F08091F9
:10027000B900887F089580E008958093BB0084E8EA
:100280008093BC008091BC0087FFFCCF8091B900B7
:10029000887F883221F08091B900887F089580E0BE
:1002A0000895EF92FF920F931F93CF93DF937B01FB
:1002B0008C01D0E0C0E0CE018E0D9F1DC817D9077C
:1002C00044F080E0DF91CF911F910F91FF90EF906C
:1002D0000895F80181918F010E943D018111F2CFB3
:1002E0002196E9CF019751F484E88093BC00809176
:1002F000BC0087FFFCCF8091BB00089584ECF5CF54
:1003000084E98093BC000895CF93DF93D82FC62F44
:100310000E94260180E40E943D018D2F0E943D0134
:100320008C2F0E943D01DF91CF910C948001CF93DF
:10033000C62F682F84E190E00E9484016C2F85E134
:1003400090E0CF910C948401CF93C82F60E084E1BA
:1003500090E00E9484016C2F85E190E0CF910C9495
:1003600084010E941C0160E28AE090E00E94840106
:1003700060E28BE090E00E94840160E090E080E029
:100380000E94840160E081E090E00E94840190E09E
:1003900080E00C94A4019091460180914701891757
:1003A00010F0891B08958058FCCF90910401809132
:1003B0000501891710F0891B0895805CFCCFE0ECE3
:1003C000F0E080818D7F80831092C50087E6809366
:1003D000C400E1ECF0E088E1808386E08093C20015
:1003E0008081806880838FB780688FBF0895E09197
:1003F000050191E09E0FEF3309F490E02091040194
:10040000291759F0F0E0EA5FFE4F808390930501D1
:100410008091C10080628093C10008958F938FB74F
:100420008F939F93EF93FF9390910401E92FF0E056
:10043000EA5FFE4F80818093C60081E0890F9F3381
:1004400009F480E08093040190910501981305C0A0
:100450008091C1008F7D8093C100FF91EF919F91AA
:100460008F918FBF8F911895CF92DF92EF92FF926D
:100470000F931F93CF93DF93CDB7DEB764970FB67B
:10048000F894DEBF0FBECDBFFE017F9661917191E2
:10049000AF018E010F5F1F4FC8010E94CB0768019B
:1004A000F12CE12CF80101900020E9F73197E01BD5
:1004B000F10BEE16FF0678F064960FB6F894DEBFE7
:1004C0000FBECDBFDF91CF911F910F91FF90EF90A5
:1004D000DF90CF900895F60181916F010E94F7019E
:1004E000FFEFEF1AFF0ADECFCF92DF92EF92FF927B
:1004F0000F931F93CF93DF93CDB7DEB764970FB6FB
:10050000F894DEBF0FBECDBFFE017F966191719161
:10051000AF018E010F5F1F4FC8010E94CB0768011A
:10052000F12CE12CF80101900020E9F73197E01B54
:10053000F10BEE16FF06B8F080E091E09F938F93E9
:100540000E9434020F900F9064960FB6F894DEBFAD
:100550000FBECDBFDF91CF911F910F91FF90EF9014
:10056000DF90CF900895F60181916F010E94F7010D
:10057000FFEFEF1AFF0AD6CF809147019091460115
:10058000891710F0891B08958058FCCF909146017F
:1005900080914701891769F0E92FF0E0E85BFE4F91
:1005A000808121E0290F9F3709F420E02093460144
:1005B00008958FEF08952F932FB72F938F939F93C5
:1005C000EF93FF939091C600E091470181E08E0F79
:1005D000EF3709F480E020914601281731F0F0E070
:1005E000E85BFE4F908380934701FF91EF919F91CD
:1005F0008F912F912FBF2F91189580914701809354
:1006000046010895A3E1B0E0E8E0F3E00C9476063B
:100610007C011B015A01DC0117961C921E92169751
:1006200013968C9181FF50C3FE0131964F01D70183
:1006300013969C91F10193FD859193FF81911F0188
:10064000882309F4F4C2853239F493FD859193FF30
:1006500081911F01853239F4B70190E00E949B0718
:1006600065015601E4CF10E0712C612CBFE1B61595
:1006700038F08B3211F190F4803209F1833229F194
:1006800067FC3CC020ED280F2A3050F566FE20C0E4
:10069000EAE01E9F200D1124122F06C08D3291F02A
:1006A000803371F7689460F8F10193FD859193FFB1
:1006B00081911F018111DACF21C0689461F868949B
:1006C00062F8F2CF689463F8EFCF689464F8ECCFE7
:1006D000FAE07F9E200D1124722E689465F8E4CF15
:1006E0008E3229F466FCA3C2689466F8DDCF8C369E
:1006F00019F4689467F8D8CF8836B1F29BEB980F5D
:10070000933008F065C0689464F8805E66FE16E079
:10071000262D2F73622E853609F062C0689466F824
:1007200067FE68C0812F1C3308F08BE34424439498
:10073000480E27E0D5014D915D916D917D916D0140
:100740004C875D876E877F87042DA4016C857D852E
:100750008E859F850E94AD065C01B981BC87B0FF84
:1007600003C00DE2B3FF0AC00BE261FC07C062FAEE
:10077000882780F9082F0295000F007EEC85EC7029
:100780005E2E09F454C00111A2C2F3E0512CF715FA
:10079000A0F483E0572C581A63FC08C0B70180E22C
:1007A00090E00E949B075A945110F8CF002329F043
:1007B000B701802F90E00E949B07FC8508E610E0BF
:1007C000F3FD02C00CE610E0262D2071622E21C040
:1007D0009BE9980F933008F03AC1E89464F896CFFB
:1007E000863619F4689467F89BCF112309F498CFE3
:1007F000115096CF212F183010F027E017E0412C30
:1008000099CF61108052B70190E00E949B070F5F63
:100810001F4FF80184918111F4CF552009F421CFA5
:10082000B70180E290E00E949B075A94F6CF67FEE2
:100830007DC0842D8A0DFC85F4FF04C09A8191331C
:1008400009F4815044244394181634F4482E28E0C7
:10085000281710F488E0482E85E090E067FE06C077
:10086000C501B7FE02C080E090E00196011101963B
:10087000112331F0212F30E02F5F3F4F820F931F64
:100880007816190619F014F0572C581A862D89700D
:1008900011F4511070C0002329F0B701802F90E0AF
:1008A0000E949B0763FC02C051106CC067FE85C0AC
:1008B0003501B7FE02C0712C612CC501861997095C
:1008C000A401480F591F598B488BB5016419710950
:1008D0007B8B6A8B012F10E0119501951109A614ED
:1008E000B7040CF456C0AA89BB89A615B7050CF04D
:1008F00050C0E889F9898181F1E06F1A71086016AA
:1009000071060CF448C0B70190E00E949B072FEFDE
:100910006216720629F4B7018EE290E00E949B07EE
:10092000888999890196998B888BD9CF66FC94CF59
:10093000E12FF0E0EA15FB053CF03CEFA3163FEF9A
:10094000B30614F0689467F83296E80DF91D01C0FB
:100950001150112319F082918033D1F367FE7CCFBF
:1009600044244394410E1A151B0419F014F01A196B
:1009700073CF10E071CFB70180E290E00E949B0737
:100980005A9487CFB70180E390E00E949B075A9466
:100990008BCF80E3B1CFA614B70441F49A8196338C
:1009A00050F4953319F43C8534FF05C0B70190E04D
:1009B0000E949B0732CF81E3F9CF8A81813319F0FE
:1009C0004C854F7E4C87B70190E00E949B07112316
:1009D00099F0B7018EE290E00E949B071E5F02E053
:1009E000802F0F5FF401E80FF11D8081B70190E0C7
:1009F0000E949B071013F4CF85E664FC85E490E029
:100A0000B7010E949B07B7FC06C0A114B104C1F452
:100A10005C8554FF15C0B194A194B1088DE2B70173
:100A200090E00E949B0780E37AE0A716B10454F49B
:100A3000B70190E00E949B07B701C501C096B8CFEF
:100A40008BE2EDCF8F5F6AE0A61AB108EDCF833657
:100A5000B1F0833741F1833509F04DC0D501AD9038
:100A6000BD906D01612F70E066FC02C06FEF7FEFFB
:100A7000C5010E9485078C01689467F80CC0650168
:100A800082E0C80ED11CD5018C91898301E010E071
:100A90005401E89467F863FC04C07016110609F06D
:100AA00088F4572C24C0F501A190B1906F01612FFB
:100AB00070E066FC02C06FEF7FEFC5010E949007F7
:100AC0008C01E7CFB70180E290E00E949B077A9407
:100AD000E4CFF50167FC859167FE81915F01B70165
:100AE00090E00E949B0751105A9401501109011582
:100AF000110579F792CE843619F0893609F070C065
:100B000067FE65C0F50161917191819191916F01CD
:100B1000B62DBF766B2E97FF09C090958095709586
:100B200061957F4F8F4F9F4F689467F82AE030E0C0
:100B3000A4010E94E807A82EA818BA2C062D66FE6C
:100B40000AC00E7FA11638F464FE04C062FC02C025
:100B5000062D0E7EB12E04FF8FC0FE01EA0DF11DA1
:100B60008081803309F081C0097E502F5870552E46
:100B700003FD91C000FF8BC01A2DB71418F47A0C36
:100B8000172D1B1904FF8DC0B70180E390E00E9470
:100B90009B0702FF07C088E701FD88E590E0B701E9
:100BA0000E949B07A11608F488C0AA940A2D10E0A1
:100BB0000F5F1F4F080D191DD8018E918D01B701D0
:100BC00090E00E949B0708151905B1F726CED501C4
:100BD0006D917D916D01072E000C880B990B98CFBC
:100BE000062D8537E1F40F7E2AE030E007FF35C09F
:100BF000D5014D915D916D917D916D014C875D8722
:100C00006E877F87A4016C857D858E859F850E9478
:100C1000E807A82EA818602EE89467F88ECF097F01
:100C2000803791F058F4883589F08F36A1F0F701BC
:100C3000868197816396E2E10C9492068837B9F732
:100C400004FD046020E1D1CF0061FACF64FC0660AE
:100C500020E132E0CBCF28E0C8CFF501819191911E
:100C60006F01AC0170E060E0C9CF02FD02C0B39437
:100C70007CCFB394B39479CF802F867809F475CF65
:100C8000F6CFB70180E290E00E949B07B394B714BF
:100C9000C0F3512C77CF572C5B18B71408F472CFE0
:100CA000F8CF802F867809F47DCF8BE201FF80E2B8
:100CB00007FD8DE2B70190E073CFB70180E390E0CC
:100CC0000E949B0711506ECF8FEF9FEFB3CF24E0B0
:100CD000512C271508F06CCD84E05CCD80E8809322
:100CE0006100109261000E94E300FFCF2F923F92BB
:100CF0004F925F926F927F928F929F92AF92BF922C
:100D0000CF92DF92EF92FF920F931F93CF93DF93D7
:100D1000CDB7DEB7CA1BDB0B0FB6F894DEBF0FBE34
:100D2000CDBF09942A88398848885F846E847D8481
:100D30008C849B84AA84B984C884DF80EE80FD8083
:100D40000C811B81AA81B981CE0FD11D0FB6F894F9
:100D5000DEBF0FBECDBFED010895283008F027E0BB
:100D60003327DA01990F311D87FD916000966105E7
:100D7000710539F432602E5F3D9330E32A95E1F737
:100D800008959F3F30F080387105610509F03C5FA0
:100D90003C5F3D93913008F08068911DDF93CF93C5
:100DA0001F930F93FF92EF92192F987F9695E92F3B
:100DB00096959695E90FFF27E653FF4F992733271E
:100DC000EE24FF24A701E70105900894079428F476
:100DD000360FE71EF81E491F511D660F771F881F2B
:100DE000991F0694A1F70590079428F4E70EF81EC2
:100DF000491F561FC11D770F881F991F661F069434
:100E0000A1F70590079428F4F80E491F561FC71F35
:100E1000D11D880F991F661F771F0694A1F70590B3
:100E2000079420F4490F561FC71FD81F990F661F3C
:100E3000771F881F0694A9F784911095177041F0C9
:100E4000D695C79557954795F794E7941A95C1F7A6
:100E5000E0E7F0E0689415901591359165919591D2
:100E600005907FE27395E118F10A430B560BC90B0D
:100E7000D009C0F7E10CF11E431F561FC91FD01D3A
:100E80007EF4703311F48A95E6CFE894015030F087
:100E9000080F0AF40027021708F4202F2395022FC9
:100EA0007A3328F079E37D932A95E9F710C07D9392
:100EB0002A9589F60694979567953795179517940F
:100EC000E118F10A430B560BC90BD00998F0239592
:100ED0007E9173957A3308F070E37C932013B8F712
:100EE0007E9170617D9330F0839571E37D9370E323
:100EF0002A95E1F71124EF90FF900F911F91CF9168
:100F0000DF91992787FD90950895FC010590615028
:100F100070400110D8F7809590958E0F9F1F08950F
:100F2000FC016150704001900110D8F780959095B8
:100F30008E0F9F1F08950F931F93CF93DF93182F4A
:100F4000092FEB018B8181FD09C01FEF0FEF812F6E
:100F5000902FDF91CF911F910F91089582FF14C0C0
:100F60002E813F818C819D81281739073CF4E881CF
:100F7000F981CF0101969983888310838E819F81A7
:100F800001969F838E83E3CFE885F985812F0995AC
:100F9000892BA1F3DACFAEE0B0E0E1EDF7E00C94FD
:100FA00084068C0186E08C831A8309838FEF9FE788
:100FB0009E838D83CE0101960E9402032F81388586
:100FC000020F131FF80110822E96E4E00C94A00685
:100FD000FA01AA27283051F1203181F1E8946F936A
:100FE0006E7F6E5F7F4F8F4F9F4FAF4FB1E03ED010
:100FF000B4E03CD0670F781F891F9A1FA11D680FAE
:10100000791F8A1F911DA11D6A0F711D811D911DE0
:10101000A11D20D009F468943F912AE0269F112455
:101020003019305D3193DEF6CF010895462F4770B9
:10103000405D4193B3E00FD0C9F7F6CF462F4F7014
:10104000405D4A3318F0495D31FD4052419302D072
:10105000A9F7EACFB4E0A695979587957795679518
:10106000BA95C9F700976105710508959B01AC0118
:101070000A2E06945795479537952795BA95C9F73F
:10108000620F731F841F951FA01D0895F894FFCF52
:041090000D0A000045
:00000001FF
