:100000000C94B5000C9433080C945E080C94D20048
:100010000C94D2000C94D2000C94D2000C94D20018
:100020000C94D2000C94D2000C94D2000C94D20008
:100030000C94D2000C94D2000C94D2000C94D200F8
:100040000C94D2000C94D2000C94D2000C94D200E8
:100050000C94D2000C94D2000C94D2000C94D200D8
:100060000C94D2000C94D2006E616E00696E660032
:1000700000407A10F35A00A0724E18090010A5D45F
:10008000E80000E87648170000E40B54020000CABC
:100090009A3B000000E1F505000080969800000002
:1000A00040420F000000A086010000001027000061
:1000B0000000E803000000006400000000000A00E7
:1000C000000000000100000000002C76D888DC67EA
:1000D0004F0823DFC1DFAE59E1B1B796E5E3E45342
:1000E000C63AE651997696E8E6C28426EB898C9B5F
:1000F00062ED407C6FFCEFBC9C9F40F2BAA56FA5FF
:10010000F490055A2AF75C936B6CF9676DC11BFC80
:10011000E0E40D47FEF520E6B500D0ED902E03009B
:10012000943577050080841E080000204E0A0000E8
:1001300000C80C333333330F986E12831141EF8DA7
:100140002114893BE65516CFFEE6DB18D1844B38E7
:100150001BF77C1D901DA4BBE424203284725E2218
:100160008100C9F124ECA1E53D2711241FBECFEF8A
:10017000D8E0DEBFCDBF12E0A0E0B1E0E8E4F2E2FB
:1001800002C005900D92A639B107D9F722E0A6E981
:10019000B2E001C01D92A33DB207E1F70E942A0C14
:1001A0000C9422110C9400008330910511F1A0F4FD
:1001B00081309105D1F082309105C9F0892B99F0F9
:1001C00081EA8093800081E08093810091E89093A0
:1001D000B0008093B10008958430910561F00597D7
:1001E00079F7239AEDCF539AEBCF559AE9CF569AE8
:1001F000E7CF219AE5CF229AE3CF83309105B9F07A
:1002000048F48130910579F08230910571F0892BA5
:1002100039F008958430910579F0059791F00895AB
:100220006093B400089568BD089567BD0895109265
:10023000890060938800089510928B0060938A0073
:1002400008956093B300089570E060E083E090E06B
:100250000E94D40070E060E084E090E00E94D4004E
:1002600070E060E085E090E00E94D400209A579A08
:10027000569A559A289A5F9A5E9A5D980895CF92F9
:10028000DF92EF92FF920F931F93CF93DF9300D0F3
:1002900000D000D0CDB7DEB76B017C0126EE3FE584
:1002A0004DEF52E46983DA828B83FC8269817A8123
:1002B0008B819C810E94160F8B018E839D832BED79
:1002C0003FE049EC5FE369817A818B819C810E94E8
:1002D000500D87FF6CC020E030E0A90109831A832C
:1002E0008E818B838D818C8369817A818B819C81C6
:1002F0000E94110F20E030E040E05FE387FD4AC03C
:1003000069817A818B819C810E94E40C69837A8364
:100310008B839C8369817A818B819C810E94C70D2C
:10032000462F572F440F551FFA01EF5FFE4F808174
:1003300091819C01990F440B550B29833A834B8380
:100340005C83CA01B9010E94FF0D27E137EB41ED43
:1003500058E369837A838B839C8369817A818B815B
:100360009C810E94160F69837A838B839C836981A9
:100370007A818B819C8126960FB6F894DEBF0FBEE2
:10038000CDBFDF91CF911F910F91FF90EF90DF9044
:10039000CF90089509831A838E818B838D818C83FE
:1003A00069817A818B819C810E94E30CAFCF2BED18
:1003B0003FE049E450E4C982DA82EB82FC82698141
:1003C0007A818B819C810E94500D87FF46C020E07E
:1003D00030E0A90109831A838E818B838D818C8300
:1003E00069817A818B819C810E94110F20E030E02D
:1003F00040E05FE387FD24C069817A818B819C8125
:100400000E94E40C69837A838B839C8369817A815F
:100410008B819C810E94C70D69837A838B839C8327
:100420008EE891E0A0E0B0E029813A814B815C81C7
:10043000821B930BA40BB50B880F991FFC0175CF82
:1004400009831A838E818B838D818C8369817A8164
:100450008B819C810E94E30CD5CF24EE3BEC46E9D6
:1004600050E4C982DA82EB82FC8269817A818B81D5
:100470009C810E94500D20E030E0A90109831A837D
:1004800087FF4BC08E818B838D818C8369817A81BC
:100490008B819C810E94110F20E030E040E05FE3FF
:1004A00087FD2EC069817A818B819C810E94E40C3A
:1004B00069837A838B839C8369817A818B819C8118
:1004C0000E94C70DDC01CB018E589140A109B109F2
:1004D000880F991FFC01EF5FFE4F808191819C0185
:1004E000990F440B550B29833A834B835C83CA01D4
:1004F000B9010E94FF0D27E137EB41ED58EB29CF01
:1005000009831A838E818B838D818C8369817A81A3
:100510008B819C810E94E30CCBCF8E818B838D815C
:100520008C8369817A818B819C810E94110F20E0EC
:1005300030E040E05FE387FD21C069817A818B81F3
:100540009C810E94E40C69837A838B839C836981FC
:100550007A818B819C810E94C70D69837A838B830A
:100560009C838CE193E0A0E0B0E029813A814B814B
:100570005C81821B930BA40BB50BAACF09831A8352
:100580008E818B838D818C8369817A818B819C8123
:100590000E94E30CD8CF0F931F93CF93DF9300D02B
:1005A00000D000D0CDB7DEB72BED3FE049EC5FE3E4
:1005B00069837A838B839C8369817A818B819C8117
:1005C0000E94E40C8B018E839D832BED3FE049EC70
:1005D00050E469831A838B839C8369817A818B8140
:1005E0009C810E94110F18166CF42BED3FE049EC32
:1005F00050E469817A818B819C810E94E30C8B019C
:100600008E839D8309831A838E818B838D818C8356
:1006100069817A818B819C8126960FB6F894DEBF22
:100620000FBECDBFDF91CF911F910F910C943F0171
:100630000F931F93CF93DF9300D000D000D0CDB79E
:10064000DEB72BED3FE049EC50E469837A838B837E
:100650009C8369817A818B819C810E94450E8B01EC
:100660008E839D8320E030E0A90169831A838B8308
:100670009C8369817A818B819C810E94110F87FF05
:100680000DC02BED3FE049EC50E469817A818B810C
:100690009C810E94E40C8B018E839D8309831A83C5
:1006A0008E818B838D818C8369817A818B819C8102
:1006B00026960FB6F894DEBF0FBECDBFDF91CF9167
:1006C0001F910F910895CF92DF92EF92FF920F93B7
:1006D0001F93CF93DF9300D000D000D0CDB7DEB70B
:1006E00069014E835D831092890020E030E04FE77E
:1006F00053E469837A838B839C8369817A818B81BC
:100700009C810E94160F69837A838B839C83698105
:100710007A818B819C810E94CE0D6093880010921B
:100720008B0020E030E04FE753E4C982DA828E810B
:100730008B838D818C8369817A818B819C810E94DE
:10074000160F69837A838B839C8369817A818B817D
:100750009C810E94CE0D60938A0020E030E04FE73C
:1007600053E4E982FA820B831C8369817A818B814D
:100770009C810E94160F69837A838B839C83698195
:100780007A818B819C810E94CE0D6093B300269666
:100790000FB6F894DEBF0FBECDBFDF91CF911F9192
:1007A0000F91FF90EF90DF90CF9008958F929F92DE
:1007B000AF92BF92CF92DF92EF92FF920F931F936F
:1007C000CF93DF93CDB7DEB729970FB6F894DEBF8E
:1007D0000FBECDBF4B015C01690149875D8320E0FD
:1007E00030E0A90169839A828B83BC8269817A8116
:1007F0008B819C810E94500D87FD60C28091000119
:10080000282F30E050E040E029833A834B835C831B
:10081000CA01B9010E94FF0D9401A50169837A8381
:100820008B839C8369817A818B819C810E94500D8E
:1008300087FF10C080910001282F30E050E040E099
:1008400029833A834B835C83CA01B9010E94FF0D5F
:100850004B015C0120E030E0A901C982DA82898580
:100860008B839D819C8369817A818B819C810E948D
:10087000500D87FD28C280910001282F30E050E004
:1008800040E029833A834B835C83CA01B9010E940B
:10089000FF0D960149855D8169837A838B839C83F3
:1008A00069817A818B819C810E94500D87FF11C0E4
:1008B00080910001282F30E050E040E029833A8306
:1008C0004B835C83CA01B9010E94FF0D6B018987CC
:1008D0009D8320E030E0A901E982FA820B831C832A
:1008E00069817A818B819C810E94500D87FDF0C1C6
:1008F00080910001282F30E050E040E029833A83C6
:100900004B835C83CA01B9010E94FF0D9701A801C6
:1009100069837A838B839C8369817A818B819C81B3
:100920000E94500D87FF10C080910001282F30E0F9
:1009300050E040E029833A834B835C83CA01B901CC
:100940000E94FF0D7B018C0180910001282F30E077
:1009500050E040E029833A834B835C83CA01B901AC
:100960000E94FF0D9B01AC0189829A82AB82BC82FE
:1009700069817A818B819C810E94550D20E030E055
:10098000A90169837A838B839C8369817A818B81B6
:100990009C810E94500D40E050E0BA0187FD4BC0A1
:1009A00080910001282F30E050E040E029833A8315
:1009B0004B835C83CA01B9010E94FF0D9B01AC010E
:1009C00089829A82AB82BC8269817A818B819C8187
:1009D0000E94550D20E030E040E85FE369837A83B0
:1009E0008B839C8369817A818B819C810E94110F0A
:1009F00040E050E060E87FE31816ECF080910001E1
:100A0000282F30E050E040E029833A834B835C8319
:100A1000CA01B9010E94FF0D9B01AC0189829A8233
:100A2000AB82BC8269817A818B819C810E94550D49
:100A3000462F572FBC014093BE025093BF026093D4
:100A4000C0027093C10280910001282F30E050E075
:100A500040E029833A834B835C83CA01B9010E9439
:100A6000FF0D9B01AC01C982DA8289858B839D8150
:100A70009C8369817A818B819C810E94550D20E045
:100A800030E0A90169837A838B839C8369817A81B1
:100A90008B819C810E94500D40E050E0BA0187FD9F
:100AA0004FC080910001282F30E050E040E02983C2
:100AB0003A834B835C83CA01B9010E94FF0D9B01FD
:100AC000AC01C982DA8289858B839D819C8369818F
:100AD0007A818B819C810E94550D20E030E040E8B6
:100AE0005FE369837A838B839C8369817A818B81BD
:100AF0009C810E94110F40E050E060E87FE31816EF
:100B0000FCF080910001282F30E050E040E0298384
:100B10003A834B835C83CA01B9010E94FF0D9B019C
:100B2000AC01C982DA8289858B839D819C8369812E
:100B30007A818B819C810E94550D462F572FBC01D5
:100B40004093BA025093BB026093BC027093BD0203
:100B500080910001282F30E050E040E029833A8363
:100B60004B835C83CA01B9010E94FF0D9B01AC015C
:100B7000E982FA820B831C8369817A818B819C8153
:100B80000E94550D20E030E0A90169837A838B83B0
:100B90009C8369817A818B819C810E94500D40E009
:100BA00050E0BA0187FD4BC080910001282F30E052
:100BB00050E040E029833A834B835C83CA01B9014A
:100BC0000E94FF0D9B01AC01E982FA820B831C831A
:100BD00069817A818B819C810E94550D20E030E0F3
:100BE00040E85FE369837A838B839C8369817A81A0
:100BF0008B819C810E94110F40E050E060E87FE310
:100C00001816ECF080910001282F30E050E040E011
:100C100029833A834B835C83CA01B9010E94FF0D8B
:100C20009B01AC01E982FA820B831C8369817A8182
:100C30008B819C810E94550D462F572FBC014093FC
:100C4000B6025093B7026093B8027093B9028091D4
:100C5000B6029091B702A091B802B091B90289830F
:100C60009A83AB83BC832091BA023091BB0240913E
:100C7000BC025091BD028091BE029091BF02A09132
:100C8000C002B091C102E980FA800B811C81BC01D5
:100C9000CD010E94630329960FB6F894DEBF0FBE04
:100CA000CDBFDF91CF911F910F91FF90EF90DF901B
:100CB000CF90BF90AF909F908F900895812C912CF2
:100CC000A12CB12CC7CDC12CD12C19861D8201CEEF
:100CD000E12CF12C00E010E037CE2F923F924F92A2
:100CE0005F926F927F928F929F92AF92BF92CF92BC
:100CF000DF92EF92FF920F931F93CF93DF93CDB7C5
:100D0000DEB72F970FB6F894DEBF0FBECDBF5B01E5
:100D10008C879D8739014A01E982FA820B831C8303
:100D200069817A818B819C810E9418038B018F8756
:100D30009E8769831A838B839C8369817A818B81E7
:100D40009C810E94CB026D8379878A879B8769810A
:100D50007A818B819C810E943F011B012C01809133
:100D600000018695282F30E050E040E029833A8347
:100D70004B835C83CA01B9010E94FF0D8B018F87F1
:100D80009E879301A4018D81898399859A83AA8581
:100D9000AB83BB85BC8369817A818B819C810E94F6
:100DA000160F6B017C0195014C855D8529823A8285
:100DB0004B825C8269817A818B819C810E94160FB3
:100DC0009B01AC01C982DA82EB82FC8269817A8163
:100DD0008B819C810E94E30C69837A838B839C8343
:100DE00069817A818B819C810E94C70D69837A8396
:100DF0008B839C8329813A81032E000C440B550B75
:100E000029833A834B835C83CA01B9010E94FF0D99
:100E10006B017C0198014F855E856983DA828B8343
:100E2000FC8269817A818B819C810E94E40CAB01F8
:100E3000BC014093B2025093B3026093B40270932A
:100E4000B50220E030E040E05FEB69817A818B8180
:100E50009C810E94160F6B017C019301A4012982E1
:100E60003A824B825C8269817A818B819C810E946B
:100E7000160F3B014C0195014C855D858D81898361
:100E800099859A83AA85AB83BB85BC8369817A8166
:100E90008B819C810E94160F9B01AC0169827A8232
:100EA0008B829C8269817A818B819C810E94E40C77
:100EB00069837A838B839C8369817A818B819C810E
:100EC0000E94C70D69837A838B839C8329813A8131
:100ED000032E000C440B550B29833A834B835C8310
:100EE000CA01B9010E94FF0D27ED33EB4DE55FE329
:100EF00069837A838B839C8369817A818B819C81CE
:100F00000E94160F4B015C019B01AC01C982DA8281
:100F1000EB82FC8269817A818B819C810E94E40C46
:100F200098014F855E8569837A838B839C83698171
:100F30007A818B819C810E94E40C462F572FBC0143
:100F40004093AE025093AF026093B0027093B1022F
:100F50009401A501C982DA82EB82FC8269817A81DF
:100F60008B819C810E94E30C98014F855E8569838B
:100F70007A838B839C8369817A818B819C810E9497
:100F8000E40C462F572FBC014093AA025093AB02AA
:100F90006093AC027093AD028091AA029091AB0273
:100FA000A091AC02B091AD0289839A83AB83BC83DC
:100FB0002091AE023091AF024091B0025091B10247
:100FC0008091B2029091B302A091B402B091B502A7
:100FD000E980FA800B811C81BC01CD010E94D603FF
:100FE0002F960FB6F894DEBF0FBECDBFDF91CF9125
:100FF0001F910F91FF90EF90DF90CF90BF90AF9037
:101000009F908F907F906F905F904F903F902F9028
:101010000895009731F0019759F08FB780688FBF1E
:10102000089580916900826080936900E89AF5CF05
:1010300080916900886080936900E99AEECF1AB8C0
:1010400090E080E00E94090881E090E00E94090899
:101050001092CA021092C90281E090E09093C802F7
:101060008093C70208951F921FB61F9211248F9379
:101070009F934B9B15C08091C9029091CA02019623
:101080009093CA028093C90281E090E09093C802D5
:101090008093C7029F918F911F901FBE1F9018953C
:1010A0008091C9029091CA0201979093CA028093DD
:1010B000C9021092C8021092C702ECCF1F921FB64D
:1010C0001F9211248F939F934A9915C08091C90252
:1010D0009091CA0201969093CA028093C90281E05E
:1010E00090E09093C8028093C7029F918F911F90C8
:1010F0001FBE1F9018958091C9029091CA02019756
:101100009093CA028093C9021092C8021092C7023B
:10111000ECCFE0ECF0E080818D7F80831092C50001
:1011200087E68093C40088E18093C10086E08093C5
:10113000C20008959091C00095FFFCCF8093C60037
:101140000895CF93DF93EC018991811103C0DF9162
:10115000CF9108950E949A08F7CFCF93DF93EC01C7
:101160008991811108C08DE00E949A088AE0DF9180
:10117000CF910C949A080E949A08F2CFA3E1B0E0B4
:10118000E4ECF8E00C94AC0C7C011B015A01DC018E
:1011900017961C921E92169713968C9181FF50C33E
:1011A000FE0131964F01D70113969C91F10193FDF9
:1011B000859193FF81911F01882309F4F4C2853240
:1011C00039F493FD859193FF81911F01853239F4A4
:1011D000B70190E00E94711065015601E4CF10E064
:1011E000712C612CBFE1B61538F08B3211F190F4FF
:1011F000803209F1833229F167FC3CC020ED280FD1
:101200002A3050F566FE20C0EAE01E9F200D112412
:10121000122F06C08D3291F0803371F7689460F818
:10122000F10193FD859193FF81911F018111DACF27
:1012300021C0689461F8689462F8F2CF689463F80A
:10124000EFCF689464F8ECCFFAE07F9E200D112474
:10125000722E689465F8E4CF8E3229F466FCA3C23E
:10126000689466F8DDCF8C3619F4689467F8D8CFA7
:101270008836B1F29BEB980F933008F065C0689404
:1012800064F8805E66FE16E0262D2F73622E85368A
:1012900009F062C0689466F867FE68C0812F1C334D
:1012A00008F08BE344244394480E27E0D5014D9188
:1012B0005D916D917D916D014C875D876E877F8714
:1012C000042DA4016C857D858E859F850E94830FEA
:1012D0005C01B981BC87B0FF03C00DE2B3FF0AC057
:1012E0000BE261FC07C062FA882780F9082F02959B
:1012F000000F007EEC85EC705E2E09F454C00111E5
:10130000A2C2F3E0512CF715A0F483E0572C581A31
:1013100063FC08C0B70180E290E00E9471105A940B
:101320005110F8CF002329F0B701802F90E00E94E0
:101330007110FC8508E610E0F3FD02C00CE610E039
:10134000262D2071622E21C09BE9980F933008F062
:101350003AC1E89464F896CF863619F4689467F831
:101360009BCF112309F498CF115096CF212F18301D
:1013700010F027E017E0412C99CF61108052B7019F
:1013800090E00E9471100F5F1F4FF801849181114E
:10139000F4CF552009F421CFB70180E290E00E94FC
:1013A00071105A94F6CF67FE7DC0842D8A0DFC859E
:1013B000F4FF04C09A81913309F48150442443948A
:1013C000181634F4482E28E0281710F488E0482E28
:1013D00085E090E067FE06C0C501B7FE02C080E070
:1013E00090E0019601110196112331F0212F30E098
:1013F0002F5F3F4F820F931F7816190619F014F0D4
:10140000572C581A862D897011F4511070C0002382
:1014100029F0B701802F90E00E94711063FC02C098
:1014200051106CC067FE85C03501B7FE02C0712C3B
:10143000612CC50186199709A401480F591F598BC2
:10144000488BB501641971097B8B6A8B012F10E001
:10145000119501951109A614B7040CF456C0AA8978
:10146000BB89A615B7050CF050C0E889F9898181C0
:10147000F1E06F1A7108601671060CF448C0B701EC
:1014800090E00E9471102FEF6216720629F4B701E6
:101490008EE290E00E947110888999890196998B5B
:1014A000888BD9CF66FC94CFE12FF0E0EA15FB05DD
:1014B0003CF03CEFA3163FEFB30614F0689467F8D6
:1014C0003296E80DF91D01C01150112319F08291D7
:1014D0008033D1F367FE7CCF44244394410E1A1528
:1014E0001B0419F014F01A1973CF10E071CFB70173
:1014F00080E290E00E9471105A9487CFB70180E398
:1015000090E00E9471105A948BCF80E3B1CFA61463
:10151000B70441F49A81963350F4953319F43C851D
:1015200034FF05C0B70190E00E94711032CF81E313
:10153000F9CF8A81813319F04C854F7E4C87B701F2
:1015400090E00E947110112399F0B7018EE290E0B3
:101550000E9471101E5F02E0802F0F5FF401E80F00
:10156000F11D8081B70190E00E9471101013F4CF3B
:1015700085E664FC85E490E0B7010E947110B7FC39
:1015800006C0A114B104C1F45C8554FF15C0B19428
:10159000A194B1088DE2B70190E00E94711080E340
:1015A0007AE0A716B10454F4B70190E00E947110DC
:1015B000B701C501C096B8CF8BE2EDCF8F5F6AE06F
:1015C000A61AB108EDCF8336B1F0833741F18335E8
:1015D00009F04DC0D501AD90BD906D01612F70E057
:1015E00066FC02C06FEF7FEFC5010E945B108C01AB
:1015F000689467F80CC0650182E0C80ED11CD50163
:101600008C91898301E010E05401E89467F863FC51
:1016100004C07016110609F088F4572C24C0F50197
:10162000A190B1906F01612F70E066FC02C06FEF76
:101630007FEFC5010E9466108C01E7CFB70180E201
:1016400090E00E9471107A94E4CFF50167FC8591D7
:1016500067FE81915F01B70190E00E947110511007
:101660005A94015011090115110579F792CE84366B
:1016700019F0893609F070C067FE65C0F501619107
:101680007191819191916F01B62DBF766B2E97FF6D
:1016900009C090958095709561957F4F8F4F9F4FB2
:1016A000689467F82AE030E0A4010E94C410A82ED4
:1016B000A818BA2C062D66FE0AC00E7FA11638F4B3
:1016C00064FE04C062FC02C0062D0E7EB12E04FF33
:1016D0008FC0FE01EA0DF11D8081803309F081C0C9
:1016E000097E502F5870552E03FD91C000FF8BC00E
:1016F0001A2DB71418F47A0C172D1B1904FF8DC07E
:10170000B70180E390E00E94711002FF07C088E7F4
:1017100001FD88E590E0B7010E947110A11608F460
:1017200088C0AA940A2D10E00F5F1F4F080D191DE5
:10173000D8018E918D01B70190E00E9471100815BB
:101740001905B1F726CED5016D917D916D01072E5A
:10175000000C880B990B98CF062D8537E1F40F7E8E
:101760002AE030E007FF35C0D5014D915D916D91C4
:101770007D916D014C875D876E877F87A4016C85A5
:101780007D858E859F850E94C410A82EA818602E86
:10179000E89467F88ECF097F803791F058F4883548
:1017A00089F08F36A1F0F701868197816396E2E197
:1017B0000C94C80C8837B9F704FD046020E1D1CF40
:1017C0000061FACF64FC066020E132E0CBCF28E074
:1017D000C8CFF501819191916F01AC0170E060E09B
:1017E000C9CF02FD02C0B3947CCFB394B39479CF38
:1017F000802F867809F475CFF6CFB70180E290E0AC
:101800000E947110B394B714C0F3512C77CF572CAA
:101810005B18B71408F472CFF8CF802F867809F4DC
:101820007DCF8BE201FF80E207FD8DE2B70190E002
:1018300073CFB70180E390E00E94711011506ECF1A
:101840008FEF9FEFB3CF24E0512C271508F06CCD1C
:1018500084E05CCD00D000D000D0CDB7DEB780E80A
:1018600080936100109261000E9489080E94240107
:101870000E941F082FEF83ED90E32150804090409D
:10188000E1F700C0000081E9A82E82E0B82E92ECBA
:10189000C92E92E0D92E1092CA021092C9021E825D
:1018A0001D828D819E81092E000CAA0BBB0B8983A2
:1018B0009A83AB83BC83BC01CD010E94FF0D2BED4D
:1018C0003FE049EC50E469837A838B839C83698190
:1018D0007A818B819C810E94160F20E030E048E4E1
:1018E00053E469837A838B839C8369817A818B81BA
:1018F0009C810E94550D69837A838B839C83E98048
:10190000FA800B811C8120E030E0A90160E070E0EA
:1019100080EA90E40E946D06AD81BE811196BE837F
:10192000AD83A83CB10509F0BCCF8091C90290916C
:10193000CA029F938F93BF92AF92DF92CF920E9481
:10194000A11082EC92E00E94AD080F900F900F90D2
:101950000F900F900F909FCF2F923F924F925F92D8
:101960006F927F928F929F92AF92BF92CF92DF92AF
:10197000EF92FF920F931F93CF93DF93CDB7DEB714
:10198000CA1BDB0B0FB6F894DEBF0FBECDBF0994A8
:101990002A88398848885F846E847D848C849B84FF
:1019A000AA84B984C884DF80EE80FD800C811B810D
:1019B000AA81B981CE0FD11D0FB6F894DEBF0FBE3C
:1019C000CDBFED0108955058BB27AA270E94FB0CFC
:1019D0000C94D70E0E94C90E38F00E94D00E20F051
:1019E00039F49F3F19F426F40C94C60E0EF4E095DA
:1019F000E7FB0C94B20EE92F0E94E80E58F3BA17D9
:101A0000620773078407950720F079F4A6F50C9414
:101A10000A0F0EF4E0950B2EBA2FA02D0B01B90181
:101A200090010C01CA01A0011124FF27591B99F054
:101A3000593F50F4503E68F11A16F040A22F232F60
:101A4000342F4427585FF3CF469537952795A795B0
:101A5000F0405395C9F77EF41F16BA0B620B730B57
:101A6000840BBAF09150A1F0FF0FBB1F661F771FC8
:101A7000881FC2F70EC0BA0F621F731F841F48F47D
:101A8000879577956795B795F7959E3F08F0B0CF06
:101A90009395880F08F09927EE0F979587950895ED
:101AA0000E948E0E08F481E008950E94690D0C9446
:101AB000D70E0E94D00E58F00E94C90E40F029F4B3
:101AC0005F3F29F00C94B20E51110C940B0F0C9443
:101AD000C60E0E94E80E68F39923B1F3552391F3E3
:101AE000951B550BBB27AA2762177307840738F08D
:101AF0009F5F5F4F220F331F441FAA1FA9F335D0EA
:101B00000E2E3AF0E0E832D091505040E695001C9D
:101B1000CAF72BD0FE2F29D0660F771F881FBB1F57
:101B2000261737074807AB07B0E809F0BB0B802D35
:101B3000BF01FF2793585F4F3AF09E3F510578F061
:101B40000C94B20E0C940B0F5F3FE4F3983ED4F369
:101B5000869577956795B795F7959F5FC9F7880F35
:101B6000911D9695879597F90895E1E0660F771F87
:101B7000881FBB1F621773078407BA0720F0621B18
:101B8000730B840BBA0BEE1F88F7E09508950E9443
:101B9000CE0D6894B1110C940B0F08950E94F00EB5
:101BA00088F09F5798F0B92F9927B751B0F0E1F01E
:101BB000660F771F881F991F1AF0BA95C9F714C0CE
:101BC000B13091F00E940A0FB1E008950C940A0F11
:101BD000672F782F8827B85F39F0B93FCCF3869507
:101BE00077956795B395D9F73EF490958095709564
:101BF00061957F4F8F4F9F4F0895E89409C097FBE1
:101C00003EF490958095709561957F4F8F4F9F4FD3
:101C10009923A9F0F92F96E9BB279395F695879517
:101C200077956795B795F111F8CFFAF4BB0F11F4DA
:101C300060FF1BC06F5F7F4F8F4F9F4F16C0882381
:101C400011F096E911C0772321F09EE8872F762FB7
:101C500005C0662371F096E8862F70E060E02AF0F8
:101C60009A95660F771F881FDAF7880F96958795E4
:101C700097F908950E94C90E20F019F00E94D00E25
:101C800050F40C94C60E0C940B0FE92F0E94E80E32
:101C900088F35523B1F3E7FB6217730784079507B1
:101CA000A8F189F3E92FFF2788232AF03197660FDF
:101CB000771F881FDAF7952F5527442332F091506C
:101CC0005040220F331F441FD2F7BB27E91BF50BEF
:101CD000621B730B840BB109B1F222F4620F731F04
:101CE000841FB11D31972AF0660F771F881FBB1F15
:101CF000EFCF9150504062F041F0882332F0660FF0
:101D0000771F881F91505040C1F793950C94B80EDF
:101D10008695779567959F5FD9F7F7CF990F00085C
:101D2000550FAA0BE0E8FEEF16161706E807F907AD
:101D3000C0F012161306E407F50798F0621B730B48
:101D4000840B950B39F40A2661F0232B242B252BC9
:101D500021F408950A2609F4A140A6958FEF811D6C
:101D6000811D089597F99F6780E870E060E008950D
:101D70009F3F31F0915020F4879577956795B795FF
:101D8000880F911D9695879597F908959FEF80ECA0
:101D9000089500240A9416161706180609060895D1
:101DA00000240A9412161306140605060895092E37
:101DB0000394000C11F4882352F0BB0F40F4BF2BA6
:101DC00011F460FF04C06F5F7F4F8F4F9F4F0895E6
:101DD00057FD9058440F551F59F05F3F71F04795DC
:101DE000880F97FB991F61F09F3F79F087950895C1
:101DF000121613061406551FF2CF4695F1DF08C0E0
:101E0000161617061806991FF1CF869571056105FC
:101E100008940895E894BB2766277727CB0197F9A4
:101E200008950E948E0E08F48FEF08950E94290FE6
:101E30000C94D70E0E94C90E38F00E94D00E20F0EC
:101E4000952311F00C94B20E0C94C60E11240C9430
:101E50000B0F0E94E80E70F3959FC1F3950F50E0B1
:101E6000551F629FF001729FBB27F00DB11D639F4C
:101E7000AA27F00DB11DAA1F649F6627B00DA11DF2
:101E8000661F829F2227B00DA11D621F739FB00D98
:101E9000A11D621F839FA00D611D221F749F332708
:101EA000A00D611D231F849F600D211D822F762FA1
:101EB0006A2F11249F5750409AF0F1F088234AF07E
:101EC000EE0FFF1FBB1F661F771F881F91505040EA
:101ED000A9F79E3F510580F00C94B20E0C940B0FA5
:101EE0005F3FE4F3983ED4F3869577956795B79571
:101EF000F795E7959F5FC1F7FE2B880F911D96958B
:101F0000879597F90895283008F027E03327DA01FC
:101F1000990F311D87FD916000966105710539F4B7
:101F200032602E5F3D9330E32A95E1F708959F3F9D
:101F300030F080387105610509F03C5F3C5F3D93EE
:101F4000913008F08068911DDF93CF931F930F931A
:101F5000FF92EF92192F987F9695E92F9695969577
:101F6000E90FFF27E653FF4F99273327EE24FF247D
:101F7000A701E70105900894079428F4360FE71E9F
:101F8000F81E491F511D660F771F881F991F069461
:101F9000A1F70590079428F4E70EF81E491F561F75
:101FA000C11D770F881F991F661F0694A1F7059022
:101FB000079428F4F80E491F561FC71FD11D880F1C
:101FC000991F661F771F0694A1F70590079420F4C8
:101FD000490F561FC71FD81F990F661F771F881FED
:101FE0000694A9F784911095177041F0D695C7957E
:101FF00057954795F794E7941A95C1F7E0E7F0E015
:1020000068941590159135916591959105907FE2B1
:102010007395E118F10A430B560BC90BD009C0F7B1
:10202000E10CF11E431F561FC91FD01D7EF47033F3
:1020300011F48A95E6CFE894015030F0080F0AF4C5
:102040000027021708F4202F2395022F7A3328F057
:1020500079E37D932A95E9F710C07D932A9589F657
:10206000069497956795379517951794E118F10A97
:10207000430B560BC90BD00998F023957E917395AD
:102080007A3308F070E37C932013B8F77E91706187
:102090007D9330F0839571E37D9370E32A95E1F7AA
:1020A0001124EF90FF900F911F91CF91DF9199270D
:1020B00087FD90950895FC010590615070400110D6
:1020C000D8F7809590958E0F9F1F0895FC01615061
:1020D000704001900110D8F7809590958E0F9F1F4A
:1020E00008950F931F93CF93DF93182F092FEB01C0
:1020F0008B8181FD09C01FEF0FEF812F902FDF91A2
:10210000CF911F910F91089582FF14C02E813F81BE
:102110008C819D81281739073CF4E881F981CF0132
:1021200001969983888310838E819F8101969F8376
:102130008E83E3CFE885F985812F0995892BA1F35B
:10214000DACFAEE0B0E0E7EAF0E10C94BA0C0D892A
:102150001E8986E08C831A8309838FEF9FE79E8315
:102160008D83AE01475E5F4F6F89788DCE010196FA
:102170000E94BE082F813885020F131FF8011082BC
:102180002E96E4E00C94D60CFA01AA27283051F1DF
:10219000203181F1E8946F936E7F6E5F7F4F8F4F98
:1021A0009F4FAF4FB1E03ED0B4E03CD0670F781FF7
:1021B000891F9A1FA11D680F791F8A1F911DA11DDC
:1021C0006A0F711D811D911DA11D20D009F4689415
:1021D0003F912AE0269F11243019305D3193DEF6BD
:1021E000CF010895462F4770405D4193B3E00FD073
:1021F000C9F7F6CF462F4F70405D4A3318F0495D5E
:1022000031FD4052419302D0A9F7EACFB4E0A69540
:102210009795879577956795BA95C9F70097610562
:10222000710508959B01AC010A2E069457954795B8
:1022300037952795BA95C9F7620F731F841F951FAD
:08224000A01D0895F894FFCFE2
:102248001800004F009E00ED003C018B01D90128C9
:10225800027702C60215036303B20300044F049D0C
:1022680004EC043A058805D60524067206C0060E55
:10227800075B07A907F60743089008DD082A0977CE
:1022880009C3090F0A5C0AA80AF40A3F0B8B0BD68C
:102298000B210C6C0CB70C010D4C0D960DE00D29A3
:1022A8000E730EBC0E050F4E0F960FDF0F27106E24
:1022B80010B610FD1044118B11D11117125D12A226
:1022C80012E8122D137113B613F9133D148114C4B7
:1022D80014061549158B15CC150E164F168F16CFEB
:1022E800160F174F178E17CD170B1849188718C4D4
:1022F8001801193D197919B519F0192B1A661A9F81
:102308001AD91A121B4B1B831BBB1BF21B291C60FF
:102318001C961CCB1C001D351D691D9D1DD01D0361
:102328001E351E671E981EC91EFA1E291F591F88B2
:102338001FB61FE41F11203E206A209620C120EC02
:10234800201621402169219221BA21E12108222F5A
:102358002255227A229F22C322E7220A232D234FC5
:102368002370239123B223D123F1230F242D244B4F
:102378002468248424A024BB24D524EF24092522FE
:10238800253A25522569257F259525AA25BF25D3D8
:1023980025E625F9250B261D262E263E264E265DEA
:1023A800266C267A2687269426A026AB26B626C033
:1023B80026CA26D326DB26E326EA26F126F726FCBC
:1023C800260127052708270B270D270F2710271079
:0623D8002725356400001A
:00000001FF
